{
  "_format": "hh-sol-artifact-1",
  "contractName": "VoteBadgeNFT",
  "sourceName": "contracts/VoteBadgeNFT.sol",
  "abi": [
    {
      "inputs": [
        {
          "internalType": "string",
          "name": "name",
          "type": "string"
        },
        {
          "internalType": "string",
          "name": "symbol",
          "type": "string"
        },
        {
          "internalType": "string",
          "name": "baseTokenURI",
          "type": "string"
        }
      ],
      "stateMutability": "nonpayable",
      "type": "constructor"
    },
    {
      "anonymous": false,
      "inputs": [
        {
          "indexed": true,
          "internalType": "address",
          "name": "owner",
          "type": "address"
        },
        {
          "indexed": true,
          "internalType": "address",
          "name": "approved",
          "type": "address"
        },
        {
          "indexed": true,
          "internalType": "uint256",
          "name": "tokenId",
          "type": "uint256"
        }
      ],
      "name": "Approval",
      "type": "event"
    },
    {
      "anonymous": false,
      "inputs": [
        {
          "indexed": true,
          "internalType": "address",
          "name": "owner",
          "type": "address"
        },
        {
          "indexed": true,
          "internalType": "address",
          "name": "operator",
          "type": "address"
        },
        {
          "indexed": false,
          "internalType": "bool",
          "name": "approved",
          "type": "bool"
        }
      ],
      "name": "ApprovalForAll",
      "type": "event"
    },
    {
      "anonymous": false,
      "inputs": [
        {
          "indexed": true,
          "internalType": "address",
          "name": "to",
          "type": "address"
        },
        {
          "indexed": true,
          "internalType": "uint256",
          "name": "proposalId",
          "type": "uint256"
        },
        {
          "indexed": true,
          "internalType": "uint256",
          "name": "tokenId",
          "type": "uint256"
        },
        {
          "indexed": false,
          "internalType": "uint256",
          "name": "nftType",
          "type": "uint256"
        }
      ],
      "name": "BadgeMinted",
      "type": "event"
    },
    {
      "anonymous": false,
      "inputs": [
        {
          "indexed": true,
          "internalType": "address",
          "name": "previousOwner",
          "type": "address"
        },
        {
          "indexed": true,
          "internalType": "address",
          "name": "newOwner",
          "type": "address"
        }
      ],
      "name": "OwnershipTransferred",
      "type": "event"
    },
    {
      "anonymous": false,
      "inputs": [
        {
          "indexed": true,
          "internalType": "address",
          "name": "from",
          "type": "address"
        },
        {
          "indexed": true,
          "internalType": "address",
          "name": "to",
          "type": "address"
        },
        {
          "indexed": true,
          "internalType": "uint256",
          "name": "tokenId",
          "type": "uint256"
        }
      ],
      "name": "Transfer",
      "type": "event"
    },
    {
      "inputs": [
        {
          "internalType": "address",
          "name": "to",
          "type": "address"
        },
        {
          "internalType": "uint256",
          "name": "tokenId",
          "type": "uint256"
        }
      ],
      "name": "approve",
      "outputs": [],
      "stateMutability": "nonpayable",
      "type": "function"
    },
    {
      "inputs": [
        {
          "internalType": "address",
          "name": "owner",
          "type": "address"
        }
      ],
      "name": "balanceOf",
      "outputs": [
        {
          "internalType": "uint256",
          "name": "",
          "type": "uint256"
        }
      ],
      "stateMutability": "view",
      "type": "function"
    },
    {
      "inputs": [
        {
          "internalType": "uint256",
          "name": "tokenId",
          "type": "uint256"
        }
      ],
      "name": "getApproved",
      "outputs": [
        {
          "internalType": "address",
          "name": "",
          "type": "address"
        }
      ],
      "stateMutability": "view",
      "type": "function"
    },
    {
      "inputs": [
        {
          "internalType": "address",
          "name": "voter",
          "type": "address"
        },
        {
          "internalType": "uint256",
          "name": "proposalId",
          "type": "uint256"
        }
      ],
      "name": "hasBadge",
      "outputs": [
        {
          "internalType": "bool",
          "name": "",
          "type": "bool"
        }
      ],
      "stateMutability": "view",
      "type": "function"
    },
    {
      "inputs": [
        {
          "internalType": "address",
          "name": "owner",
          "type": "address"
        },
        {
          "internalType": "address",
          "name": "operator",
          "type": "address"
        }
      ],
      "name": "isApprovedForAll",
      "outputs": [
        {
          "internalType": "bool",
          "name": "",
          "type": "bool"
        }
      ],
      "stateMutability": "view",
      "type": "function"
    },
    {
      "inputs": [
        {
          "internalType": "address",
          "name": "to",
          "type": "address"
        },
        {
          "internalType": "uint256",
          "name": "proposalId",
          "type": "uint256"
        },
        {
          "internalType": "uint256",
          "name": "nftType",
          "type": "uint256"
        }
      ],
      "name": "mintBadge",
      "outputs": [],
      "stateMutability": "nonpayable",
      "type": "function"
    },
    {
      "inputs": [],
      "name": "name",
      "outputs": [
        {
          "internalType": "string",
          "name": "",
          "type": "string"
        }
      ],
      "stateMutability": "view",
      "type": "function"
    },
    {
      "inputs": [],
      "name": "owner",
      "outputs": [
        {
          "internalType": "address",
          "name": "",
          "type": "address"
        }
      ],
      "stateMutability": "view",
      "type": "function"
    },
    {
      "inputs": [
        {
          "internalType": "uint256",
          "name": "tokenId",
          "type": "uint256"
        }
      ],
      "name": "ownerOf",
      "outputs": [
        {
          "internalType": "address",
          "name": "",
          "type": "address"
        }
      ],
      "stateMutability": "view",
      "type": "function"
    },
    {
      "inputs": [],
      "name": "renounceOwnership",
      "outputs": [],
      "stateMutability": "nonpayable",
      "type": "function"
    },
    {
      "inputs": [
        {
          "internalType": "address",
          "name": "from",
          "type": "address"
        },
        {
          "internalType": "address",
          "name": "to",
          "type": "address"
        },
        {
          "internalType": "uint256",
          "name": "tokenId",
          "type": "uint256"
        }
      ],
      "name": "safeTransferFrom",
      "outputs": [],
      "stateMutability": "nonpayable",
      "type": "function"
    },
    {
      "inputs": [
        {
          "internalType": "address",
          "name": "from",
          "type": "address"
        },
        {
          "internalType": "address",
          "name": "to",
          "type": "address"
        },
        {
          "internalType": "uint256",
          "name": "tokenId",
          "type": "uint256"
        },
        {
          "internalType": "bytes",
          "name": "data",
          "type": "bytes"
        }
      ],
      "name": "safeTransferFrom",
      "outputs": [],
      "stateMutability": "nonpayable",
      "type": "function"
    },
    {
      "inputs": [
        {
          "internalType": "address",
          "name": "operator",
          "type": "address"
        },
        {
          "internalType": "bool",
          "name": "approved",
          "type": "bool"
        }
      ],
      "name": "setApprovalForAll",
      "outputs": [],
      "stateMutability": "nonpayable",
      "type": "function"
    },
    {
      "inputs": [
        {
          "internalType": "string",
          "name": "baseURI",
          "type": "string"
        }
      ],
      "name": "setBaseURI",
      "outputs": [],
      "stateMutability": "nonpayable",
      "type": "function"
    },
    {
      "inputs": [
        {
          "internalType": "address",
          "name": "_votingContract",
          "type": "address"
        }
      ],
      "name": "setVotingContract",
      "outputs": [],
      "stateMutability": "nonpayable",
      "type": "function"
    },
    {
      "inputs": [
        {
          "internalType": "bytes4",
          "name": "interfaceId",
          "type": "bytes4"
        }
      ],
      "name": "supportsInterface",
      "outputs": [
        {
          "internalType": "bool",
          "name": "",
          "type": "bool"
        }
      ],
      "stateMutability": "view",
      "type": "function"
    },
    {
      "inputs": [],
      "name": "symbol",
      "outputs": [
        {
          "internalType": "string",
          "name": "",
          "type": "string"
        }
      ],
      "stateMutability": "view",
      "type": "function"
    },
    {
      "inputs": [
        {
          "internalType": "uint256",
          "name": "",
          "type": "uint256"
        }
      ],
      "name": "tokenIdToType",
      "outputs": [
        {
          "internalType": "uint256",
          "name": "",
          "type": "uint256"
        }
      ],
      "stateMutability": "view",
      "type": "function"
    },
    {
      "inputs": [
        {
          "internalType": "uint256",
          "name": "tokenId",
          "type": "uint256"
        }
      ],
      "name": "tokenURI",
      "outputs": [
        {
          "internalType": "string",
          "name": "",
          "type": "string"
        }
      ],
      "stateMutability": "view",
      "type": "function"
    },
    {
      "inputs": [],
      "name": "totalSupply",
      "outputs": [
        {
          "internalType": "uint256",
          "name": "",
          "type": "uint256"
        }
      ],
      "stateMutability": "view",
      "type": "function"
    },
    {
      "inputs": [
        {
          "internalType": "address",
          "name": "from",
          "type": "address"
        },
        {
          "internalType": "address",
          "name": "to",
          "type": "address"
        },
        {
          "internalType": "uint256",
          "name": "tokenId",
          "type": "uint256"
        }
      ],
      "name": "transferFrom",
      "outputs": [],
      "stateMutability": "nonpayable",
      "type": "function"
    },
    {
      "inputs": [
        {
          "internalType": "address",
          "name": "newOwner",
          "type": "address"
        }
      ],
      "name": "transferOwnership",
      "outputs": [],
      "stateMutability": "nonpayable",
      "type": "function"
    },
    {
      "inputs": [],
      "name": "votingContract",
      "outputs": [
        {
          "internalType": "address",
          "name": "",
          "type": "address"
        }
      ],
      "stateMutability": "view",
      "type": "function"
    }
  ],
  "bytecode": "0x60806040523480156200001157600080fd5b5060405162003c8738038062003c8783398181016040528101906200003791906200030c565b828281600090816200004a919062000610565b5080600190816200005c919062000610565b5050506200007f62000073620000ab60201b60201c565b620000b360201b60201c565b806007908162000090919062000610565b50620000a233620000b360201b60201c565b505050620006f7565b600033905090565b6000600660009054906101000a900473ffffffffffffffffffffffffffffffffffffffff16905081600660006101000a81548173ffffffffffffffffffffffffffffffffffffffff021916908373ffffffffffffffffffffffffffffffffffffffff1602179055508173ffffffffffffffffffffffffffffffffffffffff168173ffffffffffffffffffffffffffffffffffffffff167f8be0079c531659141344cd1fd0a4f28419497f9722a3daafe3b4186f6b6457e060405160405180910390a35050565b6000604051905090565b600080fd5b600080fd5b600080fd5b600080fd5b6000601f19601f8301169050919050565b7f4e487b7100000000000000000000000000000000000000000000000000000000600052604160045260246000fd5b620001e28262000197565b810181811067ffffffffffffffff82111715620002045762000203620001a8565b5b80604052505050565b60006200021962000179565b9050620002278282620001d7565b919050565b600067ffffffffffffffff8211156200024a5762000249620001a8565b5b620002558262000197565b9050602081019050919050565b60005b838110156200028257808201518184015260208101905062000265565b60008484015250505050565b6000620002a56200029f846200022c565b6200020d565b905082815260208101848484011115620002c457620002c362000192565b5b620002d184828562000262565b509392505050565b600082601f830112620002f157620002f06200018d565b5b8151620003038482602086016200028e565b91505092915050565b60008060006060848603121562000328576200032762000183565b5b600084015167ffffffffffffffff81111562000349576200034862000188565b5b6200035786828701620002d9565b935050602084015167ffffffffffffffff8111156200037b576200037a62000188565b5b6200038986828701620002d9565b925050604084015167ffffffffffffffff811115620003ad57620003ac62000188565b5b620003bb86828701620002d9565b9150509250925092565b600081519050919050565b7f4e487b7100000000000000000000000000000000000000000000000000000000600052602260045260246000fd5b600060028204905060018216806200041857607f821691505b6020821081036200042e576200042d620003d0565b5b50919050565b60008190508160005260206000209050919050565b60006020601f8301049050919050565b600082821b905092915050565b600060088302620004987fffffffffffffffffffffffffffffffffffffffffffffffffffffffffffffffff8262000459565b620004a4868362000459565b95508019841693508086168417925050509392505050565b6000819050919050565b6000819050919050565b6000620004f1620004eb620004e584620004bc565b620004c6565b620004bc565b9050919050565b6000819050919050565b6200050d83620004d0565b620005256200051c82620004f8565b84845462000466565b825550505050565b600090565b6200053c6200052d565b6200054981848462000502565b505050565b5b8181101562000571576200056560008262000532565b6001810190506200054f565b5050565b601f821115620005c0576200058a8162000434565b620005958462000449565b81016020851015620005a5578190505b620005bd620005b48562000449565b8301826200054e565b50505b505050565b600082821c905092915050565b6000620005e560001984600802620005c5565b1980831691505092915050565b6000620006008383620005d2565b9150826002028217905092915050565b6200061b82620003c5565b67ffffffffffffffff811115620006375762000636620001a8565b5b620006438254620003ff565b6200065082828562000575565b600060209050601f83116001811462000688576000841562000673578287015190505b6200067f8582620005f2565b865550620006ef565b601f198416620006988662000434565b60005b82811015620006c2578489015182556001820191506020850194506020810190506200069b565b86831015620006e25784890151620006de601f891682620005d2565b8355505b6001600288020188555050505b505050505050565b61358080620007076000396000f3fe608060405234801561001057600080fd5b506004361061014d5760003560e01c80636352211e116100c3578063a22cb4651161007c578063a22cb4651461039c578063b88d4fde146103b8578063c1fc006a146103d4578063c87b56dd146103f2578063e985e9c514610422578063f2fde38b146104525761014d565b80636352211e146102da57806370a082311461030a578063715018a61461033a5780638da5cb5b1461034457806395d89b4114610362578063a069c1ac146103805761014d565b806318160ddd1161011557806318160ddd1461020857806323b872dd14610226578063356ee3351461024257806342842e0e146102725780634c6a70ce1461028e57806355f804b3146102be5761014d565b806301ffc9a71461015257806306fdde031461018257806307a43090146101a0578063081812fc146101bc578063095ea7b3146101ec575b600080fd5b61016c60048036038101906101679190611fef565b61046e565b6040516101799190612037565b60405180910390f35b61018a610550565b60405161019791906120e2565b60405180910390f35b6101ba60048036038101906101b59190612198565b6105e2565b005b6101d660048036038101906101d191906121eb565b6108c9565b6040516101e39190612227565b60405180910390f35b61020660048036038101906102019190612242565b61090f565b005b610210610a26565b60405161021d9190612291565b60405180910390f35b610240600480360381019061023b91906122ac565b610a37565b005b61025c600480360381019061025791906121eb565b610a97565b6040516102699190612291565b60405180910390f35b61028c600480360381019061028791906122ac565b610aaf565b005b6102a860048036038101906102a39190612242565b610acf565b6040516102b59190612037565b60405180910390f35b6102d860048036038101906102d39190612434565b610b37565b005b6102f460048036038101906102ef91906121eb565b610b52565b6040516103019190612227565b60405180910390f35b610324600480360381019061031f919061247d565b610bd8565b6040516103319190612291565b60405180910390f35b610342610c8f565b005b61034c610ca3565b6040516103599190612227565b60405180910390f35b61036a610ccd565b60405161037791906120e2565b60405180910390f35b61039a6004803603810190610395919061247d565b610d5f565b005b6103b660048036038101906103b191906124d6565b610e1a565b005b6103d260048036038101906103cd91906125b7565b610e30565b005b6103dc610e92565b6040516103e99190612227565b60405180910390f35b61040c600480360381019061040791906121eb565b610eb8565b60405161041991906120e2565b60405180910390f35b61043c6004803603810190610437919061263a565b610f4d565b6040516104499190612037565b60405180910390f35b61046c6004803603810190610467919061247d565b610fe1565b005b60007f80ac58cd000000000000000000000000000000000000000000000000000000007bffffffffffffffffffffffffffffffffffffffffffffffffffffffff1916827bffffffffffffffffffffffffffffffffffffffffffffffffffffffff1916148061053957507f5b5e139f000000000000000000000000000000000000000000000000000000007bffffffffffffffffffffffffffffffffffffffffffffffffffffffff1916827bffffffffffffffffffffffffffffffffffffffffffffffffffffffff1916145b80610549575061054882611064565b5b9050919050565b60606000805461055f906126a9565b80601f016020809104026020016040519081016040528092919081815260200182805461058b906126a9565b80156105d85780601f106105ad576101008083540402835291602001916105d8565b820191906000526020600020905b8154815290600101906020018083116105bb57829003601f168201915b5050505050905090565b600960009054906101000a900473ffffffffffffffffffffffffffffffffffffffff1673ffffffffffffffffffffffffffffffffffffffff163373ffffffffffffffffffffffffffffffffffffffff1614610672576040517f08c379a00000000000000000000000000000000000000000000000000000000081526004016106699061274c565b60405180910390fd5b600073ffffffffffffffffffffffffffffffffffffffff168373ffffffffffffffffffffffffffffffffffffffff16036106e1576040517f08c379a00000000000000000000000000000000000000000000000000000000081526004016106d8906127b8565b60405180910390fd5b600a600083815260200190815260200160002060008473ffffffffffffffffffffffffffffffffffffffff1673ffffffffffffffffffffffffffffffffffffffff16815260200190815260200160002060009054906101000a900460ff161561077f576040517f08c379a00000000000000000000000000000000000000000000000000000000081526004016107769061284a565b60405180910390fd5b60018110158015610791575060038111155b6107d0576040517f08c379a00000000000000000000000000000000000000000000000000000000081526004016107c7906128b6565b60405180910390fd5b6107da60086110ce565b60006107e660086110e4565b90506107f284826110f2565b81600b6000838152602001908152602001600020819055506001600a600085815260200190815260200160002060008673ffffffffffffffffffffffffffffffffffffffff1673ffffffffffffffffffffffffffffffffffffffff16815260200190815260200160002060006101000a81548160ff02191690831515021790555080838573ffffffffffffffffffffffffffffffffffffffff167f387bb3eb7501c3ed1b38da9521bab0a6604a0ec69bf681eab8c74ba6d3eea15a856040516108bb9190612291565b60405180910390a450505050565b60006108d482611110565b6004600083815260200190815260200160002060009054906101000a900473ffffffffffffffffffffffffffffffffffffffff169050919050565b600061091a82610b52565b90508073ffffffffffffffffffffffffffffffffffffffff168373ffffffffffffffffffffffffffffffffffffffff160361098a576040517f08c379a000000000000000000000000000000000000000000000000000000000815260040161098190612948565b60405180910390fd5b8073ffffffffffffffffffffffffffffffffffffffff166109a961115b565b73ffffffffffffffffffffffffffffffffffffffff1614806109d857506109d7816109d261115b565b610f4d565b5b610a17576040517f08c379a0000000000000000000000000000000000000000000000000000000008152600401610a0e906129da565b60405180910390fd5b610a218383611163565b505050565b6000610a3260086110e4565b905090565b610a48610a4261115b565b8261121c565b610a87576040517f08c379a0000000000000000000000000000000000000000000000000000000008152600401610a7e90612a6c565b60405180910390fd5b610a928383836112b1565b505050565b600b6020528060005260406000206000915090505481565b610aca83838360405180602001604052806000815250610e30565b505050565b6000600a600083815260200190815260200160002060008473ffffffffffffffffffffffffffffffffffffffff1673ffffffffffffffffffffffffffffffffffffffff16815260200190815260200160002060009054906101000a900460ff16905092915050565b610b3f6115aa565b8060079081610b4e9190612c38565b5050565b600080610b5e83611628565b9050600073ffffffffffffffffffffffffffffffffffffffff168173ffffffffffffffffffffffffffffffffffffffff1603610bcf576040517f08c379a0000000000000000000000000000000000000000000000000000000008152600401610bc690612d56565b60405180910390fd5b80915050919050565b60008073ffffffffffffffffffffffffffffffffffffffff168273ffffffffffffffffffffffffffffffffffffffff1603610c48576040517f08c379a0000000000000000000000000000000000000000000000000000000008152600401610c3f90612de8565b60405180910390fd5b600360008373ffffffffffffffffffffffffffffffffffffffff1673ffffffffffffffffffffffffffffffffffffffff168152602001908152602001600020549050919050565b610c976115aa565b610ca16000611665565b565b6000600660009054906101000a900473ffffffffffffffffffffffffffffffffffffffff16905090565b606060018054610cdc906126a9565b80601f0160208091040260200160405190810160405280929190818152602001828054610d08906126a9565b8015610d555780601f10610d2a57610100808354040283529160200191610d55565b820191906000526020600020905b815481529060010190602001808311610d3857829003601f168201915b5050505050905090565b610d676115aa565b600073ffffffffffffffffffffffffffffffffffffffff168173ffffffffffffffffffffffffffffffffffffffff1603610dd6576040517f08c379a0000000000000000000000000000000000000000000000000000000008152600401610dcd90612e54565b60405180910390fd5b80600960006101000a81548173ffffffffffffffffffffffffffffffffffffffff021916908373ffffffffffffffffffffffffffffffffffffffff16021790555050565b610e2c610e2561115b565b838361172b565b5050565b610e41610e3b61115b565b8361121c565b610e80576040517f08c379a0000000000000000000000000000000000000000000000000000000008152600401610e7790612a6c565b60405180910390fd5b610e8c84848484611897565b50505050565b600960009054906101000a900473ffffffffffffffffffffffffffffffffffffffff1681565b6060610ec3826118f3565b610f02576040517f08c379a0000000000000000000000000000000000000000000000000000000008152600401610ef990612ee6565b60405180910390fd5b6000600b60008481526020019081526020016000205490506007610f2582611934565b604051602001610f36929190613011565b604051602081830303815290604052915050919050565b6000600560008473ffffffffffffffffffffffffffffffffffffffff1673ffffffffffffffffffffffffffffffffffffffff16815260200190815260200160002060008373ffffffffffffffffffffffffffffffffffffffff1673ffffffffffffffffffffffffffffffffffffffff16815260200190815260200160002060009054906101000a900460ff16905092915050565b610fe96115aa565b600073ffffffffffffffffffffffffffffffffffffffff168173ffffffffffffffffffffffffffffffffffffffff1603611058576040517f08c379a000000000000000000000000000000000000000000000000000000000815260040161104f906130b2565b60405180910390fd5b61106181611665565b50565b60007f01ffc9a7000000000000000000000000000000000000000000000000000000007bffffffffffffffffffffffffffffffffffffffffffffffffffffffff1916827bffffffffffffffffffffffffffffffffffffffffffffffffffffffff1916149050919050565b6001816000016000828254019250508190555050565b600081600001549050919050565b61110c828260405180602001604052806000815250611a02565b5050565b611119816118f3565b611158576040517f08c379a000000000000000000000000000000000000000000000000000000000815260040161114f90612d56565b60405180910390fd5b50565b600033905090565b816004600083815260200190815260200160002060006101000a81548173ffffffffffffffffffffffffffffffffffffffff021916908373ffffffffffffffffffffffffffffffffffffffff160217905550808273ffffffffffffffffffffffffffffffffffffffff166111d683610b52565b73ffffffffffffffffffffffffffffffffffffffff167f8c5be1e5ebec7d5bd14f71427d1e84f3dd0314c0f7b2291e5b200ac8c7c3b92560405160405180910390a45050565b60008061122883610b52565b90508073ffffffffffffffffffffffffffffffffffffffff168473ffffffffffffffffffffffffffffffffffffffff16148061126a57506112698185610f4d565b5b806112a857508373ffffffffffffffffffffffffffffffffffffffff16611290846108c9565b73ffffffffffffffffffffffffffffffffffffffff16145b91505092915050565b8273ffffffffffffffffffffffffffffffffffffffff166112d182610b52565b73ffffffffffffffffffffffffffffffffffffffff1614611327576040517f08c379a000000000000000000000000000000000000000000000000000000000815260040161131e90613144565b60405180910390fd5b600073ffffffffffffffffffffffffffffffffffffffff168273ffffffffffffffffffffffffffffffffffffffff1603611396576040517f08c379a000000000000000000000000000000000000000000000000000000000815260040161138d906131d6565b60405180910390fd5b6113a38383836001611a5d565b8273ffffffffffffffffffffffffffffffffffffffff166113c382610b52565b73ffffffffffffffffffffffffffffffffffffffff1614611419576040517f08c379a000000000000000000000000000000000000000000000000000000000815260040161141090613144565b60405180910390fd5b6004600082815260200190815260200160002060006101000a81549073ffffffffffffffffffffffffffffffffffffffff02191690556001600360008573ffffffffffffffffffffffffffffffffffffffff1673ffffffffffffffffffffffffffffffffffffffff168152602001908152602001600020600082825403925050819055506001600360008473ffffffffffffffffffffffffffffffffffffffff1673ffffffffffffffffffffffffffffffffffffffff16815260200190815260200160002060008282540192505081905550816002600083815260200190815260200160002060006101000a81548173ffffffffffffffffffffffffffffffffffffffff021916908373ffffffffffffffffffffffffffffffffffffffff160217905550808273ffffffffffffffffffffffffffffffffffffffff168473ffffffffffffffffffffffffffffffffffffffff167fddf252ad1be2c89b69c2b068fc378daa952ba7f163c4a11628f55a4df523b3ef60405160405180910390a46115a58383836001611a63565b505050565b6115b261115b565b73ffffffffffffffffffffffffffffffffffffffff166115d0610ca3565b73ffffffffffffffffffffffffffffffffffffffff1614611626576040517f08c379a000000000000000000000000000000000000000000000000000000000815260040161161d90613242565b60405180910390fd5b565b60006002600083815260200190815260200160002060009054906101000a900473ffffffffffffffffffffffffffffffffffffffff169050919050565b6000600660009054906101000a900473ffffffffffffffffffffffffffffffffffffffff16905081600660006101000a81548173ffffffffffffffffffffffffffffffffffffffff021916908373ffffffffffffffffffffffffffffffffffffffff1602179055508173ffffffffffffffffffffffffffffffffffffffff168173ffffffffffffffffffffffffffffffffffffffff167f8be0079c531659141344cd1fd0a4f28419497f9722a3daafe3b4186f6b6457e060405160405180910390a35050565b8173ffffffffffffffffffffffffffffffffffffffff168373ffffffffffffffffffffffffffffffffffffffff1603611799576040517f08c379a0000000000000000000000000000000000000000000000000000000008152600401611790906132ae565b60405180910390fd5b80600560008573ffffffffffffffffffffffffffffffffffffffff1673ffffffffffffffffffffffffffffffffffffffff16815260200190815260200160002060008473ffffffffffffffffffffffffffffffffffffffff1673ffffffffffffffffffffffffffffffffffffffff16815260200190815260200160002060006101000a81548160ff0219169083151502179055508173ffffffffffffffffffffffffffffffffffffffff168373ffffffffffffffffffffffffffffffffffffffff167f17307eab39ab6107e8899845ad3d59bd9653f200f220920489ca2b5937696c318360405161188a9190612037565b60405180910390a3505050565b6118a28484846112b1565b6118ae84848484611a69565b6118ed576040517f08c379a00000000000000000000000000000000000000000000000000000000081526004016118e490613340565b60405180910390fd5b50505050565b60008073ffffffffffffffffffffffffffffffffffffffff1661191583611628565b73ffffffffffffffffffffffffffffffffffffffff1614159050919050565b60606000600161194384611bf0565b01905060008167ffffffffffffffff81111561196257611961612309565b5b6040519080825280601f01601f1916602001820160405280156119945781602001600182028036833780820191505090505b509050600082602001820190505b6001156119f7578080600190039150507f3031323334353637383961626364656600000000000000000000000000000000600a86061a8153600a85816119eb576119ea613360565b5b049450600085036119a2575b819350505050919050565b611a0c8383611d43565b611a196000848484611a69565b611a58576040517f08c379a0000000000000000000000000000000000000000000000000000000008152600401611a4f90613340565b60405180910390fd5b505050565b50505050565b50505050565b6000611a8a8473ffffffffffffffffffffffffffffffffffffffff16611f60565b15611be3578373ffffffffffffffffffffffffffffffffffffffff1663150b7a02611ab361115b565b8786866040518563ffffffff1660e01b8152600401611ad594939291906133e4565b6020604051808303816000875af1925050508015611b1157506040513d601f19601f82011682018060405250810190611b0e9190613445565b60015b611b93573d8060008114611b41576040519150601f19603f3d011682016040523d82523d6000602084013e611b46565b606091505b506000815103611b8b576040517f08c379a0000000000000000000000000000000000000000000000000000000008152600401611b8290613340565b60405180910390fd5b805181602001fd5b63150b7a0260e01b7bffffffffffffffffffffffffffffffffffffffffffffffffffffffff1916817bffffffffffffffffffffffffffffffffffffffffffffffffffffffff191614915050611be8565b600190505b949350505050565b600080600090507a184f03e93ff9f4daa797ed6e38ed64bf6a1f0100000000000000008310611c4e577a184f03e93ff9f4daa797ed6e38ed64bf6a1f0100000000000000008381611c4457611c43613360565b5b0492506040810190505b6d04ee2d6d415b85acef81000000008310611c8b576d04ee2d6d415b85acef81000000008381611c8157611c80613360565b5b0492506020810190505b662386f26fc100008310611cba57662386f26fc100008381611cb057611caf613360565b5b0492506010810190505b6305f5e1008310611ce3576305f5e1008381611cd957611cd8613360565b5b0492506008810190505b6127108310611d08576127108381611cfe57611cfd613360565b5b0492506004810190505b60648310611d2b5760648381611d2157611d20613360565b5b0492506002810190505b600a8310611d3a576001810190505b80915050919050565b600073ffffffffffffffffffffffffffffffffffffffff168273ffffffffffffffffffffffffffffffffffffffff1603611db2576040517f08c379a0000000000000000000000000000000000000000000000000000000008152600401611da9906134be565b60405180910390fd5b611dbb816118f3565b15611dfb576040517f08c379a0000000000000000000000000000000000000000000000000000000008152600401611df29061352a565b60405180910390fd5b611e09600083836001611a5d565b611e12816118f3565b15611e52576040517f08c379a0000000000000000000000000000000000000000000000000000000008152600401611e499061352a565b60405180910390fd5b6001600360008473ffffffffffffffffffffffffffffffffffffffff1673ffffffffffffffffffffffffffffffffffffffff16815260200190815260200160002060008282540192505081905550816002600083815260200190815260200160002060006101000a81548173ffffffffffffffffffffffffffffffffffffffff021916908373ffffffffffffffffffffffffffffffffffffffff160217905550808273ffffffffffffffffffffffffffffffffffffffff16600073ffffffffffffffffffffffffffffffffffffffff167fddf252ad1be2c89b69c2b068fc378daa952ba7f163c4a11628f55a4df523b3ef60405160405180910390a4611f5c600083836001611a63565b5050565b6000808273ffffffffffffffffffffffffffffffffffffffff163b119050919050565b6000604051905090565b600080fd5b600080fd5b60007fffffffff0000000000000000000000000000000000000000000000000000000082169050919050565b611fcc81611f97565b8114611fd757600080fd5b50565b600081359050611fe981611fc3565b92915050565b60006020828403121561200557612004611f8d565b5b600061201384828501611fda565b91505092915050565b60008115159050919050565b6120318161201c565b82525050565b600060208201905061204c6000830184612028565b92915050565b600081519050919050565b600082825260208201905092915050565b60005b8381101561208c578082015181840152602081019050612071565b60008484015250505050565b6000601f19601f8301169050919050565b60006120b482612052565b6120be818561205d565b93506120ce81856020860161206e565b6120d781612098565b840191505092915050565b600060208201905081810360008301526120fc81846120a9565b905092915050565b600073ffffffffffffffffffffffffffffffffffffffff82169050919050565b600061212f82612104565b9050919050565b61213f81612124565b811461214a57600080fd5b50565b60008135905061215c81612136565b92915050565b6000819050919050565b61217581612162565b811461218057600080fd5b50565b6000813590506121928161216c565b92915050565b6000806000606084860312156121b1576121b0611f8d565b5b60006121bf8682870161214d565b93505060206121d086828701612183565b92505060406121e186828701612183565b9150509250925092565b60006020828403121561220157612200611f8d565b5b600061220f84828501612183565b91505092915050565b61222181612124565b82525050565b600060208201905061223c6000830184612218565b92915050565b6000806040838503121561225957612258611f8d565b5b60006122678582860161214d565b925050602061227885828601612183565b9150509250929050565b61228b81612162565b82525050565b60006020820190506122a66000830184612282565b92915050565b6000806000606084860312156122c5576122c4611f8d565b5b60006122d38682870161214d565b93505060206122e48682870161214d565b92505060406122f586828701612183565b9150509250925092565b600080fd5b600080fd5b7f4e487b7100000000000000000000000000000000000000000000000000000000600052604160045260246000fd5b61234182612098565b810181811067ffffffffffffffff821117156123605761235f612309565b5b80604052505050565b6000612373611f83565b905061237f8282612338565b919050565b600067ffffffffffffffff82111561239f5761239e612309565b5b6123a882612098565b9050602081019050919050565b82818337600083830152505050565b60006123d76123d284612384565b612369565b9050828152602081018484840111156123f3576123f2612304565b5b6123fe8482856123b5565b509392505050565b600082601f83011261241b5761241a6122ff565b5b813561242b8482602086016123c4565b91505092915050565b60006020828403121561244a57612449611f8d565b5b600082013567ffffffffffffffff81111561246857612467611f92565b5b61247484828501612406565b91505092915050565b60006020828403121561249357612492611f8d565b5b60006124a18482850161214d565b91505092915050565b6124b38161201c565b81146124be57600080fd5b50565b6000813590506124d0816124aa565b92915050565b600080604083850312156124ed576124ec611f8d565b5b60006124fb8582860161214d565b925050602061250c858286016124c1565b9150509250929050565b600067ffffffffffffffff82111561253157612530612309565b5b61253a82612098565b9050602081019050919050565b600061255a61255584612516565b612369565b90508281526020810184848401111561257657612575612304565b5b6125818482856123b5565b509392505050565b600082601f83011261259e5761259d6122ff565b5b81356125ae848260208601612547565b91505092915050565b600080600080608085870312156125d1576125d0611f8d565b5b60006125df8782880161214d565b94505060206125f08782880161214d565b935050604061260187828801612183565b925050606085013567ffffffffffffffff81111561262257612621611f92565b5b61262e87828801612589565b91505092959194509250565b6000806040838503121561265157612650611f8d565b5b600061265f8582860161214d565b92505060206126708582860161214d565b9150509250929050565b7f4e487b7100000000000000000000000000000000000000000000000000000000600052602260045260246000fd5b600060028204905060018216806126c157607f821691505b6020821081036126d4576126d361267a565b5b50919050565b7f43616c6c6572206973206e6f742074686520566f74696e6720636f6e7472616360008201527f7400000000000000000000000000000000000000000000000000000000000000602082015250565b600061273660218361205d565b9150612741826126da565b604082019050919050565b6000602082019050818103600083015261276581612729565b9050919050565b7f43616e6e6f74206d696e7420746f207a65726f20616464726573730000000000600082015250565b60006127a2601b8361205d565b91506127ad8261276c565b602082019050919050565b600060208201905081810360008301526127d181612795565b9050919050565b7f426164676520616c7265616479206d696e74656420666f72207468697320707260008201527f6f706f73616c0000000000000000000000000000000000000000000000000000602082015250565b600061283460268361205d565b915061283f826127d8565b604082019050919050565b6000602082019050818103600083015261286381612827565b9050919050565b7f496e76616c6964204e4654207479706500000000000000000000000000000000600082015250565b60006128a060108361205d565b91506128ab8261286a565b602082019050919050565b600060208201905081810360008301526128cf81612893565b9050919050565b7f4552433732313a20617070726f76616c20746f2063757272656e74206f776e6560008201527f7200000000000000000000000000000000000000000000000000000000000000602082015250565b600061293260218361205d565b915061293d826128d6565b604082019050919050565b6000602082019050818103600083015261296181612925565b9050919050565b7f4552433732313a20617070726f76652063616c6c6572206973206e6f7420746f60008201527f6b656e206f776e6572206f7220617070726f76656420666f7220616c6c000000602082015250565b60006129c4603d8361205d565b91506129cf82612968565b604082019050919050565b600060208201905081810360008301526129f3816129b7565b9050919050565b7f4552433732313a2063616c6c6572206973206e6f7420746f6b656e206f776e6560008201527f72206f7220617070726f76656400000000000000000000000000000000000000602082015250565b6000612a56602d8361205d565b9150612a61826129fa565b604082019050919050565b60006020820190508181036000830152612a8581612a49565b9050919050565b60008190508160005260206000209050919050565b60006020601f8301049050919050565b600082821b905092915050565b600060088302612aee7fffffffffffffffffffffffffffffffffffffffffffffffffffffffffffffffff82612ab1565b612af88683612ab1565b95508019841693508086168417925050509392505050565b6000819050919050565b6000612b35612b30612b2b84612162565b612b10565b612162565b9050919050565b6000819050919050565b612b4f83612b1a565b612b63612b5b82612b3c565b848454612abe565b825550505050565b600090565b612b78612b6b565b612b83818484612b46565b505050565b5b81811015612ba757612b9c600082612b70565b600181019050612b89565b5050565b601f821115612bec57612bbd81612a8c565b612bc684612aa1565b81016020851015612bd5578190505b612be9612be185612aa1565b830182612b88565b50505b505050565b600082821c905092915050565b6000612c0f60001984600802612bf1565b1980831691505092915050565b6000612c288383612bfe565b9150826002028217905092915050565b612c4182612052565b67ffffffffffffffff811115612c5a57612c59612309565b5b612c6482546126a9565b612c6f828285612bab565b600060209050601f831160018114612ca25760008415612c90578287015190505b612c9a8582612c1c565b865550612d02565b601f198416612cb086612a8c565b60005b82811015612cd857848901518255600182019150602085019450602081019050612cb3565b86831015612cf55784890151612cf1601f891682612bfe565b8355505b6001600288020188555050505b505050505050565b7f4552433732313a20696e76616c696420746f6b656e2049440000000000000000600082015250565b6000612d4060188361205d565b9150612d4b82612d0a565b602082019050919050565b60006020820190508181036000830152612d6f81612d33565b9050919050565b7f4552433732313a2061646472657373207a65726f206973206e6f74206120766160008201527f6c6964206f776e65720000000000000000000000000000000000000000000000602082015250565b6000612dd260298361205d565b9150612ddd82612d76565b604082019050919050565b60006020820190508181036000830152612e0181612dc5565b9050919050565b7f496e76616c696420616464726573730000000000000000000000000000000000600082015250565b6000612e3e600f8361205d565b9150612e4982612e08565b602082019050919050565b60006020820190508181036000830152612e6d81612e31565b9050919050565b7f4552433732314d657461646174613a2055524920717565727920666f72206e6f60008201527f6e6578697374656e7420746f6b656e0000000000000000000000000000000000602082015250565b6000612ed0602f8361205d565b9150612edb82612e74565b604082019050919050565b60006020820190508181036000830152612eff81612ec3565b9050919050565b600081905092915050565b60008154612f1e816126a9565b612f288186612f06565b94506001821660008114612f435760018114612f5857612f8b565b60ff1983168652811515820286019350612f8b565b612f6185612a8c565b60005b83811015612f8357815481890152600182019150602081019050612f64565b838801955050505b50505092915050565b6000612f9f82612052565b612fa98185612f06565b9350612fb981856020860161206e565b80840191505092915050565b7f2e6a736f6e000000000000000000000000000000000000000000000000000000600082015250565b6000612ffb600583612f06565b915061300682612fc5565b600582019050919050565b600061301d8285612f11565b91506130298284612f94565b915061303482612fee565b91508190509392505050565b7f4f776e61626c653a206e6577206f776e657220697320746865207a65726f206160008201527f6464726573730000000000000000000000000000000000000000000000000000602082015250565b600061309c60268361205d565b91506130a782613040565b604082019050919050565b600060208201905081810360008301526130cb8161308f565b9050919050565b7f4552433732313a207472616e736665722066726f6d20696e636f72726563742060008201527f6f776e6572000000000000000000000000000000000000000000000000000000602082015250565b600061312e60258361205d565b9150613139826130d2565b604082019050919050565b6000602082019050818103600083015261315d81613121565b9050919050565b7f4552433732313a207472616e7366657220746f20746865207a65726f2061646460008201527f7265737300000000000000000000000000000000000000000000000000000000602082015250565b60006131c060248361205d565b91506131cb82613164565b604082019050919050565b600060208201905081810360008301526131ef816131b3565b9050919050565b7f4f776e61626c653a2063616c6c6572206973206e6f7420746865206f776e6572600082015250565b600061322c60208361205d565b9150613237826131f6565b602082019050919050565b6000602082019050818103600083015261325b8161321f565b9050919050565b7f4552433732313a20617070726f766520746f2063616c6c657200000000000000600082015250565b600061329860198361205d565b91506132a382613262565b602082019050919050565b600060208201905081810360008301526132c78161328b565b9050919050565b7f4552433732313a207472616e7366657220746f206e6f6e20455243373231526560008201527f63656976657220696d706c656d656e7465720000000000000000000000000000602082015250565b600061332a60328361205d565b9150613335826132ce565b604082019050919050565b600060208201905081810360008301526133598161331d565b9050919050565b7f4e487b7100000000000000000000000000000000000000000000000000000000600052601260045260246000fd5b600081519050919050565b600082825260208201905092915050565b60006133b68261338f565b6133c0818561339a565b93506133d081856020860161206e565b6133d981612098565b840191505092915050565b60006080820190506133f96000830187612218565b6134066020830186612218565b6134136040830185612282565b818103606083015261342581846133ab565b905095945050505050565b60008151905061343f81611fc3565b92915050565b60006020828403121561345b5761345a611f8d565b5b600061346984828501613430565b91505092915050565b7f4552433732313a206d696e7420746f20746865207a65726f2061646472657373600082015250565b60006134a860208361205d565b91506134b382613472565b602082019050919050565b600060208201905081810360008301526134d78161349b565b9050919050565b7f4552433732313a20746f6b656e20616c7265616479206d696e74656400000000600082015250565b6000613514601c8361205d565b915061351f826134de565b602082019050919050565b6000602082019050818103600083015261354381613507565b905091905056fea2646970667358221220648af532d27208dfa0a07c5e62656edb99f94feea289c6ad69ce91e8a7c33b4964736f6c63430008140033",
  "linkReferences": {},
  "deployedLinkReferences": {}
}