{
  "_format": "hh-sol-artifact-1",
  "contractName": "Voting",
  "sourceName": "contracts/Voting.sol",
  "abi": [
    {
      "inputs": [
        {
          "internalType": "address",
          "name": "_VoteToken",
          "type": "address"
        }
      ],
      "stateMutability": "nonpayable",
      "type": "constructor"
    },
    {
      "anonymous": false,
      "inputs": [
        {
          "indexed": true,
          "internalType": "address",
          "name": "admin",
          "type": "address"
        }
      ],
      "name": "AdminAdded",
      "type": "event"
    },
    {
      "anonymous": false,
      "inputs": [
        {
          "indexed": true,
          "internalType": "address",
          "name": "admin",
          "type": "address"
        }
      ],
      "name": "AdminRemoved",
      "type": "event"
    },
    {
      "anonymous": false,
      "inputs": [
        {
          "indexed": true,
          "internalType": "uint256",
          "name": "proposalId",
          "type": "uint256"
        },
        {
          "indexed": true,
          "internalType": "address",
          "name": "commenter",
          "type": "address"
        },
        {
          "indexed": false,
          "internalType": "string",
          "name": "ipfsHash",
          "type": "string"
        }
      ],
      "name": "CommentAdded",
      "type": "event"
    },
    {
      "anonymous": false,
      "inputs": [
        {
          "indexed": true,
          "internalType": "uint256",
          "name": "proposalId",
          "type": "uint256"
        },
        {
          "indexed": false,
          "internalType": "address",
          "name": "winner",
          "type": "address"
        },
        {
          "indexed": false,
          "internalType": "uint256",
          "name": "votes",
          "type": "uint256"
        }
      ],
      "name": "ProposalClosed",
      "type": "event"
    },
    {
      "anonymous": false,
      "inputs": [
        {
          "indexed": true,
          "internalType": "uint256",
          "name": "proposalId",
          "type": "uint256"
        },
        {
          "indexed": false,
          "internalType": "string",
          "name": "description",
          "type": "string"
        },
        {
          "indexed": false,
          "internalType": "uint256",
          "name": "deadline",
          "type": "uint256"
        },
        {
          "indexed": false,
          "internalType": "address",
          "name": "creator",
          "type": "address"
        }
      ],
      "name": "ProposalCreated",
      "type": "event"
    },
    {
      "anonymous": false,
      "inputs": [
        {
          "indexed": true,
          "internalType": "uint256",
          "name": "proposalId",
          "type": "uint256"
        },
        {
          "indexed": false,
          "internalType": "string",
          "name": "description",
          "type": "string"
        }
      ],
      "name": "ProposalRemoved",
      "type": "event"
    },
    {
      "anonymous": false,
      "inputs": [
        {
          "indexed": true,
          "internalType": "uint256",
          "name": "proposalId",
          "type": "uint256"
        },
        {
          "indexed": true,
          "internalType": "address",
          "name": "voter",
          "type": "address"
        },
        {
          "indexed": false,
          "internalType": "uint256",
          "name": "weight",
          "type": "uint256"
        }
      ],
      "name": "Voted",
      "type": "event"
    },
    {
      "inputs": [],
      "name": "PROPOSAL_FEE",
      "outputs": [
        {
          "internalType": "uint256",
          "name": "",
          "type": "uint256"
        }
      ],
      "stateMutability": "view",
      "type": "function"
    },
    {
      "inputs": [],
      "name": "VOTE_FEE",
      "outputs": [
        {
          "internalType": "uint256",
          "name": "",
          "type": "uint256"
        }
      ],
      "stateMutability": "view",
      "type": "function"
    },
    {
      "inputs": [],
      "name": "VOTIVOTERIOD",
      "outputs": [
        {
          "internalType": "uint256",
          "name": "",
          "type": "uint256"
        }
      ],
      "stateMutability": "view",
      "type": "function"
    },
    {
      "inputs": [
        {
          "internalType": "address",
          "name": "_admin",
          "type": "address"
        }
      ],
      "name": "addAdmin",
      "outputs": [],
      "stateMutability": "nonpayable",
      "type": "function"
    },
    {
      "inputs": [
        {
          "internalType": "uint256",
          "name": "proposalId",
          "type": "uint256"
        },
        {
          "internalType": "string",
          "name": "ipfsHash",
          "type": "string"
        }
      ],
      "name": "addComment",
      "outputs": [],
      "stateMutability": "nonpayable",
      "type": "function"
    },
    {
      "inputs": [
        {
          "internalType": "address",
          "name": "",
          "type": "address"
        }
      ],
      "name": "admins",
      "outputs": [
        {
          "internalType": "bool",
          "name": "",
          "type": "bool"
        }
      ],
      "stateMutability": "view",
      "type": "function"
    },
    {
      "inputs": [
        {
          "internalType": "string",
          "name": "description",
          "type": "string"
        }
      ],
      "name": "createProposal",
      "outputs": [],
      "stateMutability": "nonpayable",
      "type": "function"
    },
    {
      "inputs": [
        {
          "internalType": "uint256",
          "name": "proposalId",
          "type": "uint256"
        }
      ],
      "name": "getCommentCount",
      "outputs": [
        {
          "internalType": "uint256",
          "name": "",
          "type": "uint256"
        }
      ],
      "stateMutability": "view",
      "type": "function"
    },
    {
      "inputs": [
        {
          "internalType": "uint256",
          "name": "proposalId",
          "type": "uint256"
        }
      ],
      "name": "getComments",
      "outputs": [
        {
          "internalType": "string[]",
          "name": "",
          "type": "string[]"
        }
      ],
      "stateMutability": "view",
      "type": "function"
    },
    {
      "inputs": [
        {
          "internalType": "uint256",
          "name": "proposalId",
          "type": "uint256"
        }
      ],
      "name": "getResults",
      "outputs": [
        {
          "internalType": "string",
          "name": "description",
          "type": "string"
        },
        {
          "internalType": "uint256",
          "name": "totalVotes",
          "type": "uint256"
        },
        {
          "internalType": "bool",
          "name": "closed",
          "type": "bool"
        },
        {
          "internalType": "uint256",
          "name": "deadline",
          "type": "uint256"
        },
        {
          "internalType": "bool",
          "name": "removed",
          "type": "bool"
        },
        {
          "internalType": "address",
          "name": "creator",
          "type": "address"
        }
      ],
      "stateMutability": "view",
      "type": "function"
    },
    {
      "inputs": [
        {
          "internalType": "uint256",
          "name": "proposalId",
          "type": "uint256"
        },
        {
          "internalType": "address",
          "name": "voter",
          "type": "address"
        }
      ],
      "name": "getVoteWeight",
      "outputs": [
        {
          "internalType": "uint256",
          "name": "",
          "type": "uint256"
        }
      ],
      "stateMutability": "view",
      "type": "function"
    },
    {
      "inputs": [
        {
          "internalType": "uint256",
          "name": "",
          "type": "uint256"
        },
        {
          "internalType": "address",
          "name": "",
          "type": "address"
        }
      ],
      "name": "hasCommented",
      "outputs": [
        {
          "internalType": "bool",
          "name": "",
          "type": "bool"
        }
      ],
      "stateMutability": "view",
      "type": "function"
    },
    {
      "inputs": [
        {
          "internalType": "uint256",
          "name": "proposalId",
          "type": "uint256"
        },
        {
          "internalType": "address",
          "name": "voter",
          "type": "address"
        }
      ],
      "name": "hasVoterBadge",
      "outputs": [
        {
          "internalType": "bool",
          "name": "",
          "type": "bool"
        }
      ],
      "stateMutability": "view",
      "type": "function"
    },
    {
      "inputs": [],
      "name": "owner",
      "outputs": [
        {
          "internalType": "address",
          "name": "",
          "type": "address"
        }
      ],
      "stateMutability": "view",
      "type": "function"
    },
    {
      "inputs": [
        {
          "internalType": "uint256",
          "name": "",
          "type": "uint256"
        },
        {
          "internalType": "uint256",
          "name": "",
          "type": "uint256"
        }
      ],
      "name": "proposalComments",
      "outputs": [
        {
          "internalType": "string",
          "name": "",
          "type": "string"
        }
      ],
      "stateMutability": "view",
      "type": "function"
    },
    {
      "inputs": [],
      "name": "proposalCount",
      "outputs": [
        {
          "internalType": "uint256",
          "name": "",
          "type": "uint256"
        }
      ],
      "stateMutability": "view",
      "type": "function"
    },
    {
      "inputs": [
        {
          "internalType": "address",
          "name": "_admin",
          "type": "address"
        }
      ],
      "name": "removeAdmin",
      "outputs": [],
      "stateMutability": "nonpayable",
      "type": "function"
    },
    {
      "inputs": [
        {
          "internalType": "string",
          "name": "name",
          "type": "string"
        }
      ],
      "name": "removeProposalByName",
      "outputs": [],
      "stateMutability": "nonpayable",
      "type": "function"
    },
    {
      "inputs": [
        {
          "internalType": "address",
          "name": "_voteBadgeNFT",
          "type": "address"
        }
      ],
      "name": "setVoteBadgeNFT",
      "outputs": [],
      "stateMutability": "nonpayable",
      "type": "function"
    },
    {
      "inputs": [
        {
          "internalType": "uint256",
          "name": "proposalId",
          "type": "uint256"
        }
      ],
      "name": "vote",
      "outputs": [],
      "stateMutability": "nonpayable",
      "type": "function"
    },
    {
      "inputs": [],
      "name": "voteBadgeNFT",
      "outputs": [
        {
          "internalType": "contract VoteBadgeNFT",
          "name": "",
          "type": "address"
        }
      ],
      "stateMutability": "view",
      "type": "function"
    },
    {
      "inputs": [],
      "name": "votetoken",
      "outputs": [
        {
          "internalType": "contract IERC20",
          "name": "",
          "type": "address"
        }
      ],
      "stateMutability": "view",
      "type": "function"
    }
  ],
  "bytecode": "0x60806040523480156200001157600080fd5b506040516200375038038062003750833981810160405281019062000037919062000181565b806000806101000a81548173ffffffffffffffffffffffffffffffffffffffff021916908373ffffffffffffffffffffffffffffffffffffffff16021790555033600460006101000a81548173ffffffffffffffffffffffffffffffffffffffff021916908373ffffffffffffffffffffffffffffffffffffffff1602179055506001600560003373ffffffffffffffffffffffffffffffffffffffff1673ffffffffffffffffffffffffffffffffffffffff16815260200190815260200160002060006101000a81548160ff02191690831515021790555050620001b3565b600080fd5b600073ffffffffffffffffffffffffffffffffffffffff82169050919050565b600062000149826200011c565b9050919050565b6200015b816200013c565b81146200016757600080fd5b50565b6000815190506200017b8162000150565b92915050565b6000602082840312156200019a576200019962000117565b5b6000620001aa848285016200016a565b91505092915050565b61358d80620001c36000396000f3fe608060405234801561001057600080fd5b50600436106101425760003560e01c806370480275116100b8578063879315081161007c578063879315081461039e5780638da5cb5b146103bc578063aa7e5683146103da578063da35c664146103f6578063eb2fcf7014610414578063f61736f41461043257610142565b806370480275146102cf5780637eba5573146102eb5780637ef4aa7b1461031b57806381a60c0d14610339578063850cfac61461036e57610142565b8063233f625c1161010a578063233f625c146101fd57806323edf6971461021b578063429b62e51461024b57806343090c711461027b57806349c2a1a6146102975780634a907fa4146102b357610142565b80630121b93f146101475780630d4bfb4f146101635780631031cb84146101935780631785f53c146101c3578063231835da146101df575b600080fd5b610161600480360381019061015c9190611dd2565b610462565b005b61017d60048036038101906101789190611dd2565b610a50565b60405161018a9190611e0e565b60405180910390f35b6101ad60048036038101906101a89190611e87565b610ac0565b6040516101ba9190611ee2565b60405180910390f35b6101dd60048036038101906101d89190611efd565b610aef565b005b6101e7610d39565b6040516101f49190611e0e565b60405180910390f35b610205610d40565b6040516102129190611e0e565b60405180910390f35b61023560048036038101906102309190611dd2565b610d4d565b604051610242919061207c565b60405180910390f35b61026560048036038101906102609190611efd565b610e8a565b6040516102729190611ee2565b60405180910390f35b61029560048036038101906102909190611efd565b610eaa565b005b6102b160048036038101906102ac91906121d3565b611041565b005b6102cd60048036038101906102c8919061227c565b611330565b005b6102e960048036038101906102e49190611efd565b61153f565b005b61030560048036038101906103009190611e87565b611769565b6040516103129190611e0e565b60405180910390f35b6103236117cc565b6040516103309190611e0e565b60405180910390f35b610353600480360381019061034e9190611dd2565b6117d8565b60405161036596959493929190612322565b60405180910390f35b61038860048036038101906103839190611e87565b6118f1565b6040516103959190611ee2565b60405180910390f35b6103a66119f8565b6040516103b391906123e9565b60405180910390f35b6103c4611a1e565b6040516103d19190612404565b60405180910390f35b6103f460048036038101906103ef919061241f565b611a44565b005b6103fe611c53565b60405161040b9190611e0e565b60405180910390f35b61041c611c59565b60405161042991906124a0565b60405180910390f35b61044c600480360381019061044791906124bb565b611c7d565b60405161045991906124fb565b60405180910390f35b6000600360008381526020019081526020016000209050806001015442106104bf576040517f08c379a00000000000000000000000000000000000000000000000000000000081526004016104b690612569565b60405180910390fd5b8060030160009054906101000a900460ff1615610511576040517f08c379a0000000000000000000000000000000000000000000000000000000008152600401610508906125d5565b60405180910390fd5b8060050160003373ffffffffffffffffffffffffffffffffffffffff1673ffffffffffffffffffffffffffffffffffffffff16815260200190815260200160002060009054906101000a900460ff16156105a0576040517f08c379a000000000000000000000000000000000000000000000000000000000815260040161059790612641565b60405180910390fd5b678ac7230489e8000060008054906101000a900473ffffffffffffffffffffffffffffffffffffffff1673ffffffffffffffffffffffffffffffffffffffff166370a08231336040518263ffffffff1660e01b81526004016106029190612404565b602060405180830381865afa15801561061f573d6000803e3d6000fd5b505050506040513d601f19601f820116820180604052508101906106439190612676565b1015610684576040517f08c379a000000000000000000000000000000000000000000000000000000000815260040161067b906126ef565b60405180910390fd5b60008054906101000a900473ffffffffffffffffffffffffffffffffffffffff1673ffffffffffffffffffffffffffffffffffffffff166323b872dd33600460009054906101000a900473ffffffffffffffffffffffffffffffffffffffff16678ac7230489e800006040518463ffffffff1660e01b815260040161070b9392919061270f565b6020604051808303816000875af115801561072a573d6000803e3d6000fd5b505050506040513d601f19601f8201168201806040525081019061074e9190612772565b61078d576040517f08c379a0000000000000000000000000000000000000000000000000000000008152600401610784906127eb565b60405180910390fd5b60018160020160008282546107a2919061283a565b9250508190555060018160050160003373ffffffffffffffffffffffffffffffffffffffff1673ffffffffffffffffffffffffffffffffffffffff16815260200190815260200160002060006101000a81548160ff02191690831515021790555060018160060160003373ffffffffffffffffffffffffffffffffffffffff1673ffffffffffffffffffffffffffffffffffffffff16815260200190815260200160002081905550600073ffffffffffffffffffffffffffffffffffffffff16600160009054906101000a900473ffffffffffffffffffffffffffffffffffffffff1673ffffffffffffffffffffffffffffffffffffffff16146109fb5760006108aa611d36565b9050600160009054906101000a900473ffffffffffffffffffffffffffffffffffffffff1673ffffffffffffffffffffffffffffffffffffffff166307a43090620493e03386856040518563ffffffff1660e01b815260040161090f9392919061286e565b600060405180830381600088803b15801561092957600080fd5b5087f19350505050801561093b575060015b6109f8576109476128b2565b806308c379a0036109be575061095b6128d4565b8061096657506109c0565b3373ffffffffffffffffffffffffffffffffffffffff16847f1abe610cf2bf87e57dcc1181fcf5ac0934e843d8344ab9eed6e86c799f62585e60016040516109ae919061299f565b60405180910390a3505050610a4d565b505b3d80600081146109ec576040519150601f19603f3d011682016040523d82523d6000602084013e6109f1565b606091505b50506109f9565b5b505b3373ffffffffffffffffffffffffffffffffffffffff16827f1abe610cf2bf87e57dcc1181fcf5ac0934e843d8344ab9eed6e86c799f62585e6001604051610a43919061299f565b60405180910390a3505b50565b60008082118015610a6357506002548211155b610aa2576040517f08c379a0000000000000000000000000000000000000000000000000000000008152600401610a9990612a06565b60405180910390fd5b60066000838152602001908152602001600020805490509050919050565b60076020528160005260406000206020528060005260406000206000915091509054906101000a900460ff1681565b600460009054906101000a900473ffffffffffffffffffffffffffffffffffffffff1673ffffffffffffffffffffffffffffffffffffffff163373ffffffffffffffffffffffffffffffffffffffff1614610b7f576040517f08c379a0000000000000000000000000000000000000000000000000000000008152600401610b7690612a98565b60405180910390fd5b600560008273ffffffffffffffffffffffffffffffffffffffff1673ffffffffffffffffffffffffffffffffffffffff16815260200190815260200160002060009054906101000a900460ff16610c0b576040517f08c379a0000000000000000000000000000000000000000000000000000000008152600401610c0290612b04565b60405180910390fd5b600460009054906101000a900473ffffffffffffffffffffffffffffffffffffffff1673ffffffffffffffffffffffffffffffffffffffff168173ffffffffffffffffffffffffffffffffffffffff1603610c9b576040517f08c379a0000000000000000000000000000000000000000000000000000000008152600401610c9290612b70565b60405180910390fd5b6000600560008373ffffffffffffffffffffffffffffffffffffffff1673ffffffffffffffffffffffffffffffffffffffff16815260200190815260200160002060006101000a81548160ff0219169083151502179055508073ffffffffffffffffffffffffffffffffffffffff167fa3b62bc36326052d97ea62d63c3d60308ed4c3ea8ac079dd8499f1e9c4f80c0f60405160405180910390a250565b6202a30081565b68015af1d78b58c4000081565b6060600082118015610d6157506002548211155b610da0576040517f08c379a0000000000000000000000000000000000000000000000000000000008152600401610d9790612a06565b60405180910390fd5b60066000838152602001908152602001600020805480602002602001604051908101604052809291908181526020016000905b82821015610e7f578382906000526020600020018054610df290612bbf565b80601f0160208091040260200160405190810160405280929190818152602001828054610e1e90612bbf565b8015610e6b5780601f10610e4057610100808354040283529160200191610e6b565b820191906000526020600020905b815481529060010190602001808311610e4e57829003601f168201915b505050505081526020019060010190610dd3565b505050509050919050565b60056020528060005260406000206000915054906101000a900460ff1681565b600560003373ffffffffffffffffffffffffffffffffffffffff1673ffffffffffffffffffffffffffffffffffffffff16815260200190815260200160002060009054906101000a900460ff1680610f4f5750600460009054906101000a900473ffffffffffffffffffffffffffffffffffffffff1673ffffffffffffffffffffffffffffffffffffffff163373ffffffffffffffffffffffffffffffffffffffff16145b610f8e576040517f08c379a0000000000000000000000000000000000000000000000000000000008152600401610f8590612b04565b60405180910390fd5b600073ffffffffffffffffffffffffffffffffffffffff168173ffffffffffffffffffffffffffffffffffffffff1603610ffd576040517f08c379a0000000000000000000000000000000000000000000000000000000008152600401610ff490612c3c565b60405180910390fd5b80600160006101000a81548173ffffffffffffffffffffffffffffffffffffffff021916908373ffffffffffffffffffffffffffffffffffffffff16021790555050565b68015af1d78b58c4000060008054906101000a900473ffffffffffffffffffffffffffffffffffffffff1673ffffffffffffffffffffffffffffffffffffffff166370a08231336040518263ffffffff1660e01b81526004016110a49190612404565b602060405180830381865afa1580156110c1573d6000803e3d6000fd5b505050506040513d601f19601f820116820180604052508101906110e59190612676565b1015611126576040517f08c379a000000000000000000000000000000000000000000000000000000000815260040161111d90612ca8565b60405180910390fd5b60008054906101000a900473ffffffffffffffffffffffffffffffffffffffff1673ffffffffffffffffffffffffffffffffffffffff166323b872dd33600460009054906101000a900473ffffffffffffffffffffffffffffffffffffffff1668015af1d78b58c400006040518463ffffffff1660e01b81526004016111ae9392919061270f565b6020604051808303816000875af11580156111cd573d6000803e3d6000fd5b505050506040513d601f19601f820116820180604052508101906111f19190612772565b611230576040517f08c379a000000000000000000000000000000000000000000000000000000000815260040161122790612d3a565b60405180910390fd5b6002600081548092919061124390612d5a565b919050555060006003600060025481526020019081526020016000209050818160000190816112729190612f44565b506202a30042611282919061283a565b816001018190555060008160030160006101000a81548160ff021916908315150217905550338160040160006101000a81548173ffffffffffffffffffffffffffffffffffffffff021916908373ffffffffffffffffffffffffffffffffffffffff1602179055506002547f98504bc76d855fac343248bdddc062a45d467777dd16a83e57e505f8121562f38383600101543360405161132493929190613016565b60405180910390a25050565b600560003373ffffffffffffffffffffffffffffffffffffffff1673ffffffffffffffffffffffffffffffffffffffff16815260200190815260200160002060009054906101000a900460ff16806113d55750600460009054906101000a900473ffffffffffffffffffffffffffffffffffffffff1673ffffffffffffffffffffffffffffffffffffffff163373ffffffffffffffffffffffffffffffffffffffff16145b611414576040517f08c379a000000000000000000000000000000000000000000000000000000000815260040161140b90612b04565b60405180910390fd5b6000600190505b60025481116114ff576000600360008381526020019081526020016000209050838360405161144b929190613084565b6040518091039020816000016040516114649190613135565b604051809103902014801561148857508060030160019054906101000a900460ff16155b156114eb5760018160030160016101000a81548160ff021916908315150217905550817f4de32855f978f673d6193e70687d32bb7157af6e97b5051718018ea67d23278785856040516114dc929190613179565b60405180910390a2505061153b565b5080806114f790612d5a565b91505061141b565b506040517f08c379a0000000000000000000000000000000000000000000000000000000008152600401611532906131e9565b60405180910390fd5b5050565b600460009054906101000a900473ffffffffffffffffffffffffffffffffffffffff1673ffffffffffffffffffffffffffffffffffffffff163373ffffffffffffffffffffffffffffffffffffffff16146115cf576040517f08c379a00000000000000000000000000000000000000000000000000000000081526004016115c690612a98565b60405180910390fd5b600073ffffffffffffffffffffffffffffffffffffffff168173ffffffffffffffffffffffffffffffffffffffff160361163e576040517f08c379a000000000000000000000000000000000000000000000000000000000815260040161163590612c3c565b60405180910390fd5b600560008273ffffffffffffffffffffffffffffffffffffffff1673ffffffffffffffffffffffffffffffffffffffff16815260200190815260200160002060009054906101000a900460ff16156116cb576040517f08c379a00000000000000000000000000000000000000000000000000000000081526004016116c290613255565b60405180910390fd5b6001600560008373ffffffffffffffffffffffffffffffffffffffff1673ffffffffffffffffffffffffffffffffffffffff16815260200190815260200160002060006101000a81548160ff0219169083151502179055508073ffffffffffffffffffffffffffffffffffffffff167f44d6d25963f097ad14f29f06854a01f575648a1ef82f30e562ccd3889717e33960405160405180910390a250565b6000806003600085815260200190815260200160002090508060060160008473ffffffffffffffffffffffffffffffffffffffff1673ffffffffffffffffffffffffffffffffffffffff1681526020019081526020016000205491505092915050565b678ac7230489e8000081565b60606000806000806000806003600089815260200190815260200160002090508060000181600201548260030160009054906101000a900460ff1683600101548460030160019054906101000a900460ff168560040160009054906101000a900473ffffffffffffffffffffffffffffffffffffffff1685805461185b90612bbf565b80601f016020809104026020016040519081016040528092919081815260200182805461188790612bbf565b80156118d45780601f106118a9576101008083540402835291602001916118d4565b820191906000526020600020905b8154815290600101906020018083116118b757829003601f168201915b505050505095509650965096509650965096505091939550919395565b60008073ffffffffffffffffffffffffffffffffffffffff16600160009054906101000a900473ffffffffffffffffffffffffffffffffffffffff1673ffffffffffffffffffffffffffffffffffffffff160361195157600090506119f2565b600160009054906101000a900473ffffffffffffffffffffffffffffffffffffffff1673ffffffffffffffffffffffffffffffffffffffff16634c6a70ce83856040518363ffffffff1660e01b81526004016119ae929190613275565b602060405180830381865afa1580156119cb573d6000803e3d6000fd5b505050506040513d601f19601f820116820180604052508101906119ef9190612772565b90505b92915050565b600160009054906101000a900473ffffffffffffffffffffffffffffffffffffffff1681565b600460009054906101000a900473ffffffffffffffffffffffffffffffffffffffff1681565b600083118015611a5657506002548311155b611a95576040517f08c379a0000000000000000000000000000000000000000000000000000000008152600401611a8c90612a06565b60405180910390fd5b60008282905011611adb576040517f08c379a0000000000000000000000000000000000000000000000000000000008152600401611ad2906132ea565b60405180910390fd5b60006003600085815260200190815260200160002090508060030160019054906101000a900460ff1615611b44576040517f08c379a0000000000000000000000000000000000000000000000000000000008152600401611b3b90613356565b60405180910390fd5b60066000858152602001908152602001600020838390918060018154018082558091505060019003906000526020600020016000909192909192909192909192509182611b92929190613381565b5060016007600086815260200190815260200160002060003373ffffffffffffffffffffffffffffffffffffffff1673ffffffffffffffffffffffffffffffffffffffff16815260200190815260200160002060006101000a81548160ff0219169083151502179055503373ffffffffffffffffffffffffffffffffffffffff16847fcc2d7dd2085ae6644799a42c0174adf9afc10a43f26db5eac3ddd1f96d1d64be8585604051611c45929190613179565b60405180910390a350505050565b60025481565b60008054906101000a900473ffffffffffffffffffffffffffffffffffffffff1681565b60066020528160005260406000208181548110611c9957600080fd5b90600052602060002001600091509150508054611cb590612bbf565b80601f0160208091040260200160405190810160405280929190818152602001828054611ce190612bbf565b8015611d2e5780601f10611d0357610100808354040283529160200191611d2e565b820191906000526020600020905b815481529060010190602001808311611d1157829003601f168201915b505050505081565b6000806003424433604051602001611d50939291906134ba565b6040516020818303038152906040528051906020012060001c611d739190613526565b9050600181611d82919061283a565b91505090565b6000604051905090565b600080fd5b600080fd5b6000819050919050565b611daf81611d9c565b8114611dba57600080fd5b50565b600081359050611dcc81611da6565b92915050565b600060208284031215611de857611de7611d92565b5b6000611df684828501611dbd565b91505092915050565b611e0881611d9c565b82525050565b6000602082019050611e236000830184611dff565b92915050565b600073ffffffffffffffffffffffffffffffffffffffff82169050919050565b6000611e5482611e29565b9050919050565b611e6481611e49565b8114611e6f57600080fd5b50565b600081359050611e8181611e5b565b92915050565b60008060408385031215611e9e57611e9d611d92565b5b6000611eac85828601611dbd565b9250506020611ebd85828601611e72565b9150509250929050565b60008115159050919050565b611edc81611ec7565b82525050565b6000602082019050611ef76000830184611ed3565b92915050565b600060208284031215611f1357611f12611d92565b5b6000611f2184828501611e72565b91505092915050565b600081519050919050565b600082825260208201905092915050565b6000819050602082019050919050565b600081519050919050565b600082825260208201905092915050565b60005b83811015611f90578082015181840152602081019050611f75565b60008484015250505050565b6000601f19601f8301169050919050565b6000611fb882611f56565b611fc28185611f61565b9350611fd2818560208601611f72565b611fdb81611f9c565b840191505092915050565b6000611ff28383611fad565b905092915050565b6000602082019050919050565b600061201282611f2a565b61201c8185611f35565b93508360208202850161202e85611f46565b8060005b8581101561206a578484038952815161204b8582611fe6565b945061205683611ffa565b925060208a01995050600181019050612032565b50829750879550505050505092915050565b600060208201905081810360008301526120968184612007565b905092915050565b600080fd5b600080fd5b7f4e487b7100000000000000000000000000000000000000000000000000000000600052604160045260246000fd5b6120e082611f9c565b810181811067ffffffffffffffff821117156120ff576120fe6120a8565b5b80604052505050565b6000612112611d88565b905061211e82826120d7565b919050565b600067ffffffffffffffff82111561213e5761213d6120a8565b5b61214782611f9c565b9050602081019050919050565b82818337600083830152505050565b600061217661217184612123565b612108565b905082815260208101848484011115612192576121916120a3565b5b61219d848285612154565b509392505050565b600082601f8301126121ba576121b961209e565b5b81356121ca848260208601612163565b91505092915050565b6000602082840312156121e9576121e8611d92565b5b600082013567ffffffffffffffff81111561220757612206611d97565b5b612213848285016121a5565b91505092915050565b600080fd5b600080fd5b60008083601f84011261223c5761223b61209e565b5b8235905067ffffffffffffffff8111156122595761225861221c565b5b60208301915083600182028301111561227557612274612221565b5b9250929050565b6000806020838503121561229357612292611d92565b5b600083013567ffffffffffffffff8111156122b1576122b0611d97565b5b6122bd85828601612226565b92509250509250929050565b600082825260208201905092915050565b60006122e582611f56565b6122ef81856122c9565b93506122ff818560208601611f72565b61230881611f9c565b840191505092915050565b61231c81611e49565b82525050565b600060c082019050818103600083015261233c81896122da565b905061234b6020830188611dff565b6123586040830187611ed3565b6123656060830186611dff565b6123726080830185611ed3565b61237f60a0830184612313565b979650505050505050565b6000819050919050565b60006123af6123aa6123a584611e29565b61238a565b611e29565b9050919050565b60006123c182612394565b9050919050565b60006123d3826123b6565b9050919050565b6123e3816123c8565b82525050565b60006020820190506123fe60008301846123da565b92915050565b60006020820190506124196000830184612313565b92915050565b60008060006040848603121561243857612437611d92565b5b600061244686828701611dbd565b935050602084013567ffffffffffffffff81111561246757612466611d97565b5b61247386828701612226565b92509250509250925092565b600061248a826123b6565b9050919050565b61249a8161247f565b82525050565b60006020820190506124b56000830184612491565b92915050565b600080604083850312156124d2576124d1611d92565b5b60006124e085828601611dbd565b92505060206124f185828601611dbd565b9150509250929050565b6000602082019050818103600083015261251581846122da565b905092915050565b7f566f74696e6720706572696f64206973206f7665720000000000000000000000600082015250565b60006125536015836122c9565b915061255e8261251d565b602082019050919050565b6000602082019050818103600083015261258281612546565b9050919050565b7f50726f706f73616c20697320636c6f7365640000000000000000000000000000600082015250565b60006125bf6012836122c9565b91506125ca82612589565b602082019050919050565b600060208201905081810360008301526125ee816125b2565b9050919050565b7f416c726561647920766f74656400000000000000000000000000000000000000600082015250565b600061262b600d836122c9565b9150612636826125f5565b602082019050919050565b6000602082019050818103600083015261265a8161261e565b9050919050565b60008151905061267081611da6565b92915050565b60006020828403121561268c5761268b611d92565b5b600061269a84828501612661565b91505092915050565b7f4e6f7420656e6f75676820564f544520666f7220766f74652066656500000000600082015250565b60006126d9601c836122c9565b91506126e4826126a3565b602082019050919050565b60006020820190508181036000830152612708816126cc565b9050919050565b60006060820190506127246000830186612313565b6127316020830185612313565b61273e6040830184611dff565b949350505050565b61274f81611ec7565b811461275a57600080fd5b50565b60008151905061276c81612746565b92915050565b60006020828403121561278857612787611d92565b5b60006127968482850161275d565b91505092915050565b7f564f544520766f746520666565207472616e73666572206661696c6564000000600082015250565b60006127d5601d836122c9565b91506127e08261279f565b602082019050919050565b60006020820190508181036000830152612804816127c8565b9050919050565b7f4e487b7100000000000000000000000000000000000000000000000000000000600052601160045260246000fd5b600061284582611d9c565b915061285083611d9c565b92508282019050808211156128685761286761280b565b5b92915050565b60006060820190506128836000830186612313565b6128906020830185611dff565b61289d6040830184611dff565b949350505050565b60008160e01c9050919050565b600060033d11156128d15760046000803e6128ce6000516128a5565b90505b90565b600060443d10612961576128e6611d88565b60043d036004823e80513d602482011167ffffffffffffffff8211171561290e575050612961565b808201805167ffffffffffffffff81111561292c5750505050612961565b80602083010160043d038501811115612949575050505050612961565b612958826020018501866120d7565b82955050505050505b90565b6000819050919050565b600061298961298461297f84612964565b61238a565b611d9c565b9050919050565b6129998161296e565b82525050565b60006020820190506129b46000830184612990565b92915050565b7f496e76616c69642070726f706f73616c20494400000000000000000000000000600082015250565b60006129f06013836122c9565b91506129fb826129ba565b602082019050919050565b60006020820190508181036000830152612a1f816129e3565b9050919050565b7f4f6e6c79206f776e65722063616e2063616c6c20746869732066756e6374696f60008201527f6e00000000000000000000000000000000000000000000000000000000000000602082015250565b6000612a826021836122c9565b9150612a8d82612a26565b604082019050919050565b60006020820190508181036000830152612ab181612a75565b9050919050565b7f4e6f7420616e2061646d696e0000000000000000000000000000000000000000600082015250565b6000612aee600c836122c9565b9150612af982612ab8565b602082019050919050565b60006020820190508181036000830152612b1d81612ae1565b9050919050565b7f43616e6e6f742072656d6f7665206f776e657200000000000000000000000000600082015250565b6000612b5a6013836122c9565b9150612b6582612b24565b602082019050919050565b60006020820190508181036000830152612b8981612b4d565b9050919050565b7f4e487b7100000000000000000000000000000000000000000000000000000000600052602260045260246000fd5b60006002820490506001821680612bd757607f821691505b602082108103612bea57612be9612b90565b5b50919050565b7f496e76616c696420616464726573730000000000000000000000000000000000600082015250565b6000612c26600f836122c9565b9150612c3182612bf0565b602082019050919050565b60006020820190508181036000830152612c5581612c19565b9050919050565b7f4e6f7420656e6f75676820564f544520666f722070726f706f73616c20666565600082015250565b6000612c926020836122c9565b9150612c9d82612c5c565b602082019050919050565b60006020820190508181036000830152612cc181612c85565b9050919050565b7f564f54452070726f706f73616c20666565207472616e73666572206661696c6560008201527f6400000000000000000000000000000000000000000000000000000000000000602082015250565b6000612d246021836122c9565b9150612d2f82612cc8565b604082019050919050565b60006020820190508181036000830152612d5381612d17565b9050919050565b6000612d6582611d9c565b91507fffffffffffffffffffffffffffffffffffffffffffffffffffffffffffffffff8203612d9757612d9661280b565b5b600182019050919050565b60008190508160005260206000209050919050565b60006020601f8301049050919050565b600082821b905092915050565b600060088302612e047fffffffffffffffffffffffffffffffffffffffffffffffffffffffffffffffff82612dc7565b612e0e8683612dc7565b95508019841693508086168417925050509392505050565b6000612e41612e3c612e3784611d9c565b61238a565b611d9c565b9050919050565b6000819050919050565b612e5b83612e26565b612e6f612e6782612e48565b848454612dd4565b825550505050565b600090565b612e84612e77565b612e8f818484612e52565b505050565b5b81811015612eb357612ea8600082612e7c565b600181019050612e95565b5050565b601f821115612ef857612ec981612da2565b612ed284612db7565b81016020851015612ee1578190505b612ef5612eed85612db7565b830182612e94565b50505b505050565b600082821c905092915050565b6000612f1b60001984600802612efd565b1980831691505092915050565b6000612f348383612f0a565b9150826002028217905092915050565b612f4d82611f56565b67ffffffffffffffff811115612f6657612f656120a8565b5b612f708254612bbf565b612f7b828285612eb7565b600060209050601f831160018114612fae5760008415612f9c578287015190505b612fa68582612f28565b86555061300e565b601f198416612fbc86612da2565b60005b82811015612fe457848901518255600182019150602085019450602081019050612fbf565b868310156130015784890151612ffd601f891682612f0a565b8355505b6001600288020188555050505b505050505050565b6000606082019050818103600083015261303081866122da565b905061303f6020830185611dff565b61304c6040830184612313565b949350505050565b600081905092915050565b600061306b8385613054565b9350613078838584612154565b82840190509392505050565b600061309182848661305f565b91508190509392505050565b60008190508160005260206000209050919050565b600081546130bf81612bbf565b6130c98186613054565b945060018216600081146130e457600181146130f95761312c565b60ff198316865281151582028601935061312c565b6131028561309d565b60005b8381101561312457815481890152600182019150602081019050613105565b838801955050505b50505092915050565b600061314182846130b2565b915081905092915050565b600061315883856122c9565b9350613165838584612154565b61316e83611f9c565b840190509392505050565b6000602082019050818103600083015261319481848661314c565b90509392505050565b7f50726f706f73616c206e6f7420666f756e640000000000000000000000000000600082015250565b60006131d36012836122c9565b91506131de8261319d565b602082019050919050565b60006020820190508181036000830152613202816131c6565b9050919050565b7f416c726561647920616e2061646d696e00000000000000000000000000000000600082015250565b600061323f6010836122c9565b915061324a82613209565b602082019050919050565b6000602082019050818103600083015261326e81613232565b9050919050565b600060408201905061328a6000830185612313565b6132976020830184611dff565b9392505050565b7f4950465320686173682063616e6e6f7420626520656d70747900000000000000600082015250565b60006132d46019836122c9565b91506132df8261329e565b602082019050919050565b60006020820190508181036000830152613303816132c7565b9050919050565b7f50726f706f73616c20686173206265656e2072656d6f76656400000000000000600082015250565b60006133406019836122c9565b915061334b8261330a565b602082019050919050565b6000602082019050818103600083015261336f81613333565b9050919050565b600082905092915050565b61338b8383613376565b67ffffffffffffffff8111156133a4576133a36120a8565b5b6133ae8254612bbf565b6133b9828285612eb7565b6000601f8311600181146133e857600084156133d6578287013590505b6133e08582612f28565b865550613448565b601f1984166133f686612da2565b60005b8281101561341e578489013582556001820191506020850194506020810190506133f9565b8683101561343b5784890135613437601f891682612f0a565b8355505b6001600288020188555050505b50505050505050565b6000819050919050565b61346c61346782611d9c565b613451565b82525050565b60008160601b9050919050565b600061348a82613472565b9050919050565b600061349c8261347f565b9050919050565b6134b46134af82611e49565b613491565b82525050565b60006134c6828661345b565b6020820191506134d6828561345b565b6020820191506134e682846134a3565b601482019150819050949350505050565b7f4e487b7100000000000000000000000000000000000000000000000000000000600052601260045260246000fd5b600061353182611d9c565b915061353c83611d9c565b92508261354c5761354b6134f7565b5b82820690509291505056fea2646970667358221220e087d655958df948396dc260c94f998ea28f19bbf304266d93096a959c3160af64736f6c63430008140033",
  "linkReferences": {},
  "deployedLinkReferences": {}
}