{
  "_format": "hh-sol-artifact-1",
  "contractName": "Voting",
  "sourceName": "contracts/Voting.sol",
  "abi": [
    {
      "inputs": [
        {
          "internalType": "address",
          "name": "_helloToken",
          "type": "address"
        }
      ],
      "stateMutability": "nonpayable",
      "type": "constructor"
    },
    {
      "anonymous": false,
      "inputs": [
        {
          "indexed": true,
          "internalType": "uint256",
          "name": "proposalId",
          "type": "uint256"
        },
        {
          "indexed": false,
          "internalType": "address",
          "name": "winner",
          "type": "address"
        },
        {
          "indexed": false,
          "internalType": "uint256",
          "name": "votes",
          "type": "uint256"
        }
      ],
      "name": "ProposalClosed",
      "type": "event"
    },
    {
      "anonymous": false,
      "inputs": [
        {
          "indexed": true,
          "internalType": "uint256",
          "name": "proposalId",
          "type": "uint256"
        },
        {
          "indexed": false,
          "internalType": "string",
          "name": "description",
          "type": "string"
        },
        {
          "indexed": false,
          "internalType": "uint256",
          "name": "deadline",
          "type": "uint256"
        }
      ],
      "name": "ProposalCreated",
      "type": "event"
    },
    {
      "anonymous": false,
      "inputs": [
        {
          "indexed": true,
          "internalType": "uint256",
          "name": "proposalId",
          "type": "uint256"
        },
        {
          "indexed": false,
          "internalType": "string",
          "name": "description",
          "type": "string"
        }
      ],
      "name": "ProposalRemoved",
      "type": "event"
    },
    {
      "anonymous": false,
      "inputs": [
        {
          "indexed": true,
          "internalType": "uint256",
          "name": "proposalId",
          "type": "uint256"
        },
        {
          "indexed": true,
          "internalType": "address",
          "name": "voter",
          "type": "address"
        },
        {
          "indexed": false,
          "internalType": "uint256",
          "name": "weight",
          "type": "uint256"
        }
      ],
      "name": "Voted",
      "type": "event"
    },
    {
      "inputs": [],
      "name": "PROPOSAL_FEE",
      "outputs": [
        {
          "internalType": "uint256",
          "name": "",
          "type": "uint256"
        }
      ],
      "stateMutability": "view",
      "type": "function"
    },
    {
      "inputs": [],
      "name": "VOTE_FEE",
      "outputs": [
        {
          "internalType": "uint256",
          "name": "",
          "type": "uint256"
        }
      ],
      "stateMutability": "view",
      "type": "function"
    },
    {
      "inputs": [],
      "name": "VOTING_PERIOD",
      "outputs": [
        {
          "internalType": "uint256",
          "name": "",
          "type": "uint256"
        }
      ],
      "stateMutability": "view",
      "type": "function"
    },
    {
      "inputs": [
        {
          "internalType": "uint256",
          "name": "proposalId",
          "type": "uint256"
        }
      ],
      "name": "closeProposal",
      "outputs": [],
      "stateMutability": "nonpayable",
      "type": "function"
    },
    {
      "inputs": [
        {
          "internalType": "string",
          "name": "description",
          "type": "string"
        }
      ],
      "name": "createProposal",
      "outputs": [],
      "stateMutability": "nonpayable",
      "type": "function"
    },
    {
      "inputs": [
        {
          "internalType": "uint256",
          "name": "proposalId",
          "type": "uint256"
        }
      ],
      "name": "getResults",
      "outputs": [
        {
          "internalType": "string",
          "name": "description",
          "type": "string"
        },
        {
          "internalType": "uint256",
          "name": "totalVotes",
          "type": "uint256"
        },
        {
          "internalType": "bool",
          "name": "closed",
          "type": "bool"
        },
        {
          "internalType": "uint256",
          "name": "deadline",
          "type": "uint256"
        },
        {
          "internalType": "bool",
          "name": "removed",
          "type": "bool"
        }
      ],
      "stateMutability": "view",
      "type": "function"
    },
    {
      "inputs": [],
      "name": "helloToken",
      "outputs": [
        {
          "internalType": "contract IERC20",
          "name": "",
          "type": "address"
        }
      ],
      "stateMutability": "view",
      "type": "function"
    },
    {
      "inputs": [],
      "name": "owner",
      "outputs": [
        {
          "internalType": "address",
          "name": "",
          "type": "address"
        }
      ],
      "stateMutability": "view",
      "type": "function"
    },
    {
      "inputs": [],
      "name": "proposalCount",
      "outputs": [
        {
          "internalType": "uint256",
          "name": "",
          "type": "uint256"
        }
      ],
      "stateMutability": "view",
      "type": "function"
    },
    {
      "inputs": [
        {
          "internalType": "string",
          "name": "name",
          "type": "string"
        }
      ],
      "name": "removeProposalByName",
      "outputs": [],
      "stateMutability": "nonpayable",
      "type": "function"
    },
    {
      "inputs": [
        {
          "internalType": "uint256",
          "name": "proposalId",
          "type": "uint256"
        }
      ],
      "name": "vote",
      "outputs": [],
      "stateMutability": "nonpayable",
      "type": "function"
    }
  ],
  "bytecode": "0x60806040523480156200001157600080fd5b5060405162001eda38038062001eda833981810160405281019062000037919062000129565b806000806101000a81548173ffffffffffffffffffffffffffffffffffffffff021916908373ffffffffffffffffffffffffffffffffffffffff16021790555033600360006101000a81548173ffffffffffffffffffffffffffffffffffffffff021916908373ffffffffffffffffffffffffffffffffffffffff160217905550506200015b565b600080fd5b600073ffffffffffffffffffffffffffffffffffffffff82169050919050565b6000620000f182620000c4565b9050919050565b6200010381620000e4565b81146200010f57600080fd5b50565b6000815190506200012381620000f8565b92915050565b600060208284031215620001425762000141620000bf565b5b6000620001528482850162000112565b91505092915050565b611d6f806200016b6000396000f3fe608060405234801561001057600080fd5b50600436106100a95760003560e01c80637ef4aa7b116100715780637ef4aa7b1461013c57806381a60c0d1461015a5780638da5cb5b1461018e578063a8f0fbbd146101ac578063b1610d7e146101ca578063da35c664146101e8576100a9565b80630121b93f146100ae5780630386a016146100ca578063233f625c146100e657806349c2a1a6146101045780634a907fa414610120575b600080fd5b6100c860048036038101906100c39190610dc9565b610206565b005b6100e460048036038101906100df9190610dc9565b610642565b005b6100ee6107b9565b6040516100fb9190610e05565b60405180910390f35b61011e60048036038101906101199190610f66565b6107c6565b005b61013a6004803603810190610135919061100f565b610a70565b005b610144610c2b565b6040516101519190610e05565b60405180910390f35b610174600480360381019061016f9190610dc9565b610c37565b6040516101859594939291906110f6565b60405180910390f35b610196610d28565b6040516101a39190611191565b60405180910390f35b6101b4610d4e565b6040516101c1919061120b565b60405180910390f35b6101d2610d72565b6040516101df9190610e05565b60405180910390f35b6101f0610d79565b6040516101fd9190610e05565b60405180910390f35b600060026000838152602001908152602001600020905080600101544210610263576040517f08c379a000000000000000000000000000000000000000000000000000000000815260040161025a90611272565b60405180910390fd5b8060030160009054906101000a900460ff16156102b5576040517f08c379a00000000000000000000000000000000000000000000000000000000081526004016102ac906112de565b60405180910390fd5b8060040160003373ffffffffffffffffffffffffffffffffffffffff1673ffffffffffffffffffffffffffffffffffffffff16815260200190815260200160002060009054906101000a900460ff1615610344576040517f08c379a000000000000000000000000000000000000000000000000000000000815260040161033b9061134a565b60405180910390fd5b678ac7230489e8000060008054906101000a900473ffffffffffffffffffffffffffffffffffffffff1673ffffffffffffffffffffffffffffffffffffffff166370a08231336040518263ffffffff1660e01b81526004016103a69190611191565b602060405180830381865afa1580156103c3573d6000803e3d6000fd5b505050506040513d601f19601f820116820180604052508101906103e7919061137f565b1015610428576040517f08c379a000000000000000000000000000000000000000000000000000000000815260040161041f906113f8565b60405180910390fd5b60008054906101000a900473ffffffffffffffffffffffffffffffffffffffff1673ffffffffffffffffffffffffffffffffffffffff166323b872dd33600360009054906101000a900473ffffffffffffffffffffffffffffffffffffffff16678ac7230489e800006040518463ffffffff1660e01b81526004016104af93929190611418565b6020604051808303816000875af11580156104ce573d6000803e3d6000fd5b505050506040513d601f19601f820116820180604052508101906104f2919061147b565b610531576040517f08c379a0000000000000000000000000000000000000000000000000000000008152600401610528906114f4565b60405180910390fd5b60018160020160008282546105469190611543565b9250508190555060018160040160003373ffffffffffffffffffffffffffffffffffffffff1673ffffffffffffffffffffffffffffffffffffffff16815260200190815260200160002060006101000a81548160ff02191690831515021790555060018160050160003373ffffffffffffffffffffffffffffffffffffffff1673ffffffffffffffffffffffffffffffffffffffff168152602001908152602001600020819055503373ffffffffffffffffffffffffffffffffffffffff16827f1abe610cf2bf87e57dcc1181fcf5ac0934e843d8344ab9eed6e86c799f62585e600160405161063691906115b2565b60405180910390a35050565b600060026000838152602001908152602001600020905080600101544210156106a0576040517f08c379a000000000000000000000000000000000000000000000000000000000815260040161069790611619565b60405180910390fd5b8060030160009054906101000a900460ff16156106f2576040517f08c379a00000000000000000000000000000000000000000000000000000000081526004016106e990611685565b60405180910390fd5b60018160030160006101000a81548160ff02191690831515021790555060008160030160026101000a81548173ffffffffffffffffffffffffffffffffffffffff021916908373ffffffffffffffffffffffffffffffffffffffff160217905550817f09d62339fd3cdc6b52acbb2f292938e2553502b1bac286dbc6069a704e96a9ed8260030160029054906101000a900473ffffffffffffffffffffffffffffffffffffffff1683600201546040516107ad9291906116a5565b60405180910390a25050565b68015af1d78b58c4000081565b68015af1d78b58c4000060008054906101000a900473ffffffffffffffffffffffffffffffffffffffff1673ffffffffffffffffffffffffffffffffffffffff166370a08231336040518263ffffffff1660e01b81526004016108299190611191565b602060405180830381865afa158015610846573d6000803e3d6000fd5b505050506040513d601f19601f8201168201806040525081019061086a919061137f565b10156108ab576040517f08c379a00000000000000000000000000000000000000000000000000000000081526004016108a29061171a565b60405180910390fd5b60008054906101000a900473ffffffffffffffffffffffffffffffffffffffff1673ffffffffffffffffffffffffffffffffffffffff166323b872dd33600360009054906101000a900473ffffffffffffffffffffffffffffffffffffffff1668015af1d78b58c400006040518463ffffffff1660e01b815260040161093393929190611418565b6020604051808303816000875af1158015610952573d6000803e3d6000fd5b505050506040513d601f19601f82011682018060405250810190610976919061147b565b6109b5576040517f08c379a00000000000000000000000000000000000000000000000000000000081526004016109ac906117ac565b60405180910390fd5b600160008154809291906109c8906117cc565b919050555060006002600060015481526020019081526020016000209050818160000190816109f79190611a16565b506206978042610a079190611543565b816001018190555060008160030160006101000a81548160ff0219169083151502179055506001547ff5dc0da9afa6d080780a49fd8c680f03d2ddf3c067cd6d0c85360c096644d2d3838360010154604051610a64929190611ae8565b60405180910390a25050565b600360009054906101000a900473ffffffffffffffffffffffffffffffffffffffff1673ffffffffffffffffffffffffffffffffffffffff163373ffffffffffffffffffffffffffffffffffffffff1614610b00576040517f08c379a0000000000000000000000000000000000000000000000000000000008152600401610af790611b64565b60405180910390fd5b6000600190505b6001548111610beb5760006002600083815260200190815260200160002090508383604051610b37929190611bb4565b604051809103902081600001604051610b509190611c65565b6040518091039020148015610b7457508060030160019054906101000a900460ff16155b15610bd75760018160030160016101000a81548160ff021916908315150217905550817f4de32855f978f673d6193e70687d32bb7157af6e97b5051718018ea67d2327878585604051610bc8929190611ca9565b60405180910390a25050610c27565b508080610be3906117cc565b915050610b07565b506040517f08c379a0000000000000000000000000000000000000000000000000000000008152600401610c1e90611d19565b60405180910390fd5b5050565b678ac7230489e8000081565b606060008060008060006002600088815260200190815260200160002090508060000181600201548260030160009054906101000a900460ff1683600101548460030160019054906101000a900460ff16848054610c9490611843565b80601f0160208091040260200160405190810160405280929190818152602001828054610cc090611843565b8015610d0d5780601f10610ce257610100808354040283529160200191610d0d565b820191906000526020600020905b815481529060010190602001808311610cf057829003601f168201915b50505050509450955095509550955095505091939590929450565b600360009054906101000a900473ffffffffffffffffffffffffffffffffffffffff1681565b60008054906101000a900473ffffffffffffffffffffffffffffffffffffffff1681565b6206978081565b60015481565b6000604051905090565b600080fd5b600080fd5b6000819050919050565b610da681610d93565b8114610db157600080fd5b50565b600081359050610dc381610d9d565b92915050565b600060208284031215610ddf57610dde610d89565b5b6000610ded84828501610db4565b91505092915050565b610dff81610d93565b82525050565b6000602082019050610e1a6000830184610df6565b92915050565b600080fd5b600080fd5b6000601f19601f8301169050919050565b7f4e487b7100000000000000000000000000000000000000000000000000000000600052604160045260246000fd5b610e7382610e2a565b810181811067ffffffffffffffff82111715610e9257610e91610e3b565b5b80604052505050565b6000610ea5610d7f565b9050610eb18282610e6a565b919050565b600067ffffffffffffffff821115610ed157610ed0610e3b565b5b610eda82610e2a565b9050602081019050919050565b82818337600083830152505050565b6000610f09610f0484610eb6565b610e9b565b905082815260208101848484011115610f2557610f24610e25565b5b610f30848285610ee7565b509392505050565b600082601f830112610f4d57610f4c610e20565b5b8135610f5d848260208601610ef6565b91505092915050565b600060208284031215610f7c57610f7b610d89565b5b600082013567ffffffffffffffff811115610f9a57610f99610d8e565b5b610fa684828501610f38565b91505092915050565b600080fd5b600080fd5b60008083601f840112610fcf57610fce610e20565b5b8235905067ffffffffffffffff811115610fec57610feb610faf565b5b60208301915083600182028301111561100857611007610fb4565b5b9250929050565b6000806020838503121561102657611025610d89565b5b600083013567ffffffffffffffff81111561104457611043610d8e565b5b61105085828601610fb9565b92509250509250929050565b600081519050919050565b600082825260208201905092915050565b60005b8381101561109657808201518184015260208101905061107b565b60008484015250505050565b60006110ad8261105c565b6110b78185611067565b93506110c7818560208601611078565b6110d081610e2a565b840191505092915050565b60008115159050919050565b6110f0816110db565b82525050565b600060a082019050818103600083015261111081886110a2565b905061111f6020830187610df6565b61112c60408301866110e7565b6111396060830185610df6565b61114660808301846110e7565b9695505050505050565b600073ffffffffffffffffffffffffffffffffffffffff82169050919050565b600061117b82611150565b9050919050565b61118b81611170565b82525050565b60006020820190506111a66000830184611182565b92915050565b6000819050919050565b60006111d16111cc6111c784611150565b6111ac565b611150565b9050919050565b60006111e3826111b6565b9050919050565b60006111f5826111d8565b9050919050565b611205816111ea565b82525050565b600060208201905061122060008301846111fc565b92915050565b7f566f74696e6720706572696f64206973206f7665720000000000000000000000600082015250565b600061125c601583611067565b915061126782611226565b602082019050919050565b6000602082019050818103600083015261128b8161124f565b9050919050565b7f50726f706f73616c20697320636c6f7365640000000000000000000000000000600082015250565b60006112c8601283611067565b91506112d382611292565b602082019050919050565b600060208201905081810360008301526112f7816112bb565b9050919050565b7f416c726561647920766f74656400000000000000000000000000000000000000600082015250565b6000611334600d83611067565b915061133f826112fe565b602082019050919050565b6000602082019050818103600083015261136381611327565b9050919050565b60008151905061137981610d9d565b92915050565b60006020828403121561139557611394610d89565b5b60006113a38482850161136a565b91505092915050565b7f4e6f7420656e6f75676820484c544b20666f7220766f74652066656500000000600082015250565b60006113e2601c83611067565b91506113ed826113ac565b602082019050919050565b60006020820190508181036000830152611411816113d5565b9050919050565b600060608201905061142d6000830186611182565b61143a6020830185611182565b6114476040830184610df6565b949350505050565b611458816110db565b811461146357600080fd5b50565b6000815190506114758161144f565b92915050565b60006020828403121561149157611490610d89565b5b600061149f84828501611466565b91505092915050565b7f484c544b20766f746520666565207472616e73666572206661696c6564000000600082015250565b60006114de601d83611067565b91506114e9826114a8565b602082019050919050565b6000602082019050818103600083015261150d816114d1565b9050919050565b7f4e487b7100000000000000000000000000000000000000000000000000000000600052601160045260246000fd5b600061154e82610d93565b915061155983610d93565b925082820190508082111561157157611570611514565b5b92915050565b6000819050919050565b600061159c61159761159284611577565b6111ac565b610d93565b9050919050565b6115ac81611581565b82525050565b60006020820190506115c760008301846115a3565b92915050565b7f566f74696e67207374696c6c206f6e676f696e67000000000000000000000000600082015250565b6000611603601483611067565b915061160e826115cd565b602082019050919050565b60006020820190508181036000830152611632816115f6565b9050919050565b7f416c726561647920636c6f736564000000000000000000000000000000000000600082015250565b600061166f600e83611067565b915061167a82611639565b602082019050919050565b6000602082019050818103600083015261169e81611662565b9050919050565b60006040820190506116ba6000830185611182565b6116c76020830184610df6565b9392505050565b7f4e6f7420656e6f75676820484c544b20666f722070726f706f73616c20666565600082015250565b6000611704602083611067565b915061170f826116ce565b602082019050919050565b60006020820190508181036000830152611733816116f7565b9050919050565b7f484c544b2070726f706f73616c20666565207472616e73666572206661696c6560008201527f6400000000000000000000000000000000000000000000000000000000000000602082015250565b6000611796602183611067565b91506117a18261173a565b604082019050919050565b600060208201905081810360008301526117c581611789565b9050919050565b60006117d782610d93565b91507fffffffffffffffffffffffffffffffffffffffffffffffffffffffffffffffff820361180957611808611514565b5b600182019050919050565b7f4e487b7100000000000000000000000000000000000000000000000000000000600052602260045260246000fd5b6000600282049050600182168061185b57607f821691505b60208210810361186e5761186d611814565b5b50919050565b60008190508160005260206000209050919050565b60006020601f8301049050919050565b600082821b905092915050565b6000600883026118d67fffffffffffffffffffffffffffffffffffffffffffffffffffffffffffffffff82611899565b6118e08683611899565b95508019841693508086168417925050509392505050565b600061191361190e61190984610d93565b6111ac565b610d93565b9050919050565b6000819050919050565b61192d836118f8565b6119416119398261191a565b8484546118a6565b825550505050565b600090565b611956611949565b611961818484611924565b505050565b5b818110156119855761197a60008261194e565b600181019050611967565b5050565b601f8211156119ca5761199b81611874565b6119a484611889565b810160208510156119b3578190505b6119c76119bf85611889565b830182611966565b50505b505050565b600082821c905092915050565b60006119ed600019846008026119cf565b1980831691505092915050565b6000611a0683836119dc565b9150826002028217905092915050565b611a1f8261105c565b67ffffffffffffffff811115611a3857611a37610e3b565b5b611a428254611843565b611a4d828285611989565b600060209050601f831160018114611a805760008415611a6e578287015190505b611a7885826119fa565b865550611ae0565b601f198416611a8e86611874565b60005b82811015611ab657848901518255600182019150602085019450602081019050611a91565b86831015611ad35784890151611acf601f8916826119dc565b8355505b6001600288020188555050505b505050505050565b60006040820190508181036000830152611b0281856110a2565b9050611b116020830184610df6565b9392505050565b7f4f6e6c79206f776e65722063616e2072656d6f76652070726f706f73616c7300600082015250565b6000611b4e601f83611067565b9150611b5982611b18565b602082019050919050565b60006020820190508181036000830152611b7d81611b41565b9050919050565b600081905092915050565b6000611b9b8385611b84565b9350611ba8838584610ee7565b82840190509392505050565b6000611bc1828486611b8f565b91508190509392505050565b60008190508160005260206000209050919050565b60008154611bef81611843565b611bf98186611b84565b94506001821660008114611c145760018114611c2957611c5c565b60ff1983168652811515820286019350611c5c565b611c3285611bcd565b60005b83811015611c5457815481890152600182019150602081019050611c35565b838801955050505b50505092915050565b6000611c718284611be2565b915081905092915050565b6000611c888385611067565b9350611c95838584610ee7565b611c9e83610e2a565b840190509392505050565b60006020820190508181036000830152611cc4818486611c7c565b90509392505050565b7f50726f706f73616c206e6f7420666f756e640000000000000000000000000000600082015250565b6000611d03601283611067565b9150611d0e82611ccd565b602082019050919050565b60006020820190508181036000830152611d3281611cf6565b905091905056fea2646970667358221220ca40c96d6b641cbb3dbdeeef6ff8b6bf999b7bbef6327cfee8f8e70b1548ba3164736f6c63430008140033",
  "linkReferences": {},
  "deployedLinkReferences": {}
}