{
  "_format": "hh-sol-artifact-1",
  "contractName": "Voting",
  "sourceName": "contracts/Voting.sol",
  "abi": [
    {
      "inputs": [
        {
          "internalType": "address",
          "name": "_VoteToken",
          "type": "address"
        }
      ],
      "stateMutability": "nonpayable",
      "type": "constructor"
    },
    {
      "anonymous": false,
      "inputs": [
        {
          "indexed": true,
          "internalType": "uint256",
          "name": "proposalId",
          "type": "uint256"
        },
        {
          "indexed": false,
          "internalType": "address",
          "name": "winner",
          "type": "address"
        },
        {
          "indexed": false,
          "internalType": "uint256",
          "name": "votes",
          "type": "uint256"
        }
      ],
      "name": "ProposalClosed",
      "type": "event"
    },
    {
      "anonymous": false,
      "inputs": [
        {
          "indexed": true,
          "internalType": "uint256",
          "name": "proposalId",
          "type": "uint256"
        },
        {
          "indexed": false,
          "internalType": "string",
          "name": "description",
          "type": "string"
        },
        {
          "indexed": false,
          "internalType": "uint256",
          "name": "deadline",
          "type": "uint256"
        },
        {
          "indexed": false,
          "internalType": "address",
          "name": "creator",
          "type": "address"
        }
      ],
      "name": "ProposalCreated",
      "type": "event"
    },
    {
      "anonymous": false,
      "inputs": [
        {
          "indexed": true,
          "internalType": "uint256",
          "name": "proposalId",
          "type": "uint256"
        },
        {
          "indexed": false,
          "internalType": "string",
          "name": "description",
          "type": "string"
        }
      ],
      "name": "ProposalRemoved",
      "type": "event"
    },
    {
      "anonymous": false,
      "inputs": [
        {
          "indexed": true,
          "internalType": "uint256",
          "name": "proposalId",
          "type": "uint256"
        },
        {
          "indexed": true,
          "internalType": "address",
          "name": "voter",
          "type": "address"
        },
        {
          "indexed": false,
          "internalType": "uint256",
          "name": "weight",
          "type": "uint256"
        }
      ],
      "name": "Voted",
      "type": "event"
    },
    {
      "inputs": [],
      "name": "PROPOSAL_FEE",
      "outputs": [
        {
          "internalType": "uint256",
          "name": "",
          "type": "uint256"
        }
      ],
      "stateMutability": "view",
      "type": "function"
    },
    {
      "inputs": [],
      "name": "VOTE_FEE",
      "outputs": [
        {
          "internalType": "uint256",
          "name": "",
          "type": "uint256"
        }
      ],
      "stateMutability": "view",
      "type": "function"
    },
    {
      "inputs": [],
      "name": "VOTIVOTERIOD",
      "outputs": [
        {
          "internalType": "uint256",
          "name": "",
          "type": "uint256"
        }
      ],
      "stateMutability": "view",
      "type": "function"
    },
    {
      "inputs": [
        {
          "internalType": "uint256",
          "name": "proposalId",
          "type": "uint256"
        }
      ],
      "name": "closeProposal",
      "outputs": [],
      "stateMutability": "nonpayable",
      "type": "function"
    },
    {
      "inputs": [
        {
          "internalType": "string",
          "name": "description",
          "type": "string"
        }
      ],
      "name": "createProposal",
      "outputs": [],
      "stateMutability": "nonpayable",
      "type": "function"
    },
    {
      "inputs": [
        {
          "internalType": "uint256",
          "name": "proposalId",
          "type": "uint256"
        }
      ],
      "name": "getResults",
      "outputs": [
        {
          "internalType": "string",
          "name": "description",
          "type": "string"
        },
        {
          "internalType": "uint256",
          "name": "totalVotes",
          "type": "uint256"
        },
        {
          "internalType": "bool",
          "name": "closed",
          "type": "bool"
        },
        {
          "internalType": "uint256",
          "name": "deadline",
          "type": "uint256"
        },
        {
          "internalType": "bool",
          "name": "removed",
          "type": "bool"
        },
        {
          "internalType": "address",
          "name": "creator",
          "type": "address"
        }
      ],
      "stateMutability": "view",
      "type": "function"
    },
    {
      "inputs": [
        {
          "internalType": "uint256",
          "name": "proposalId",
          "type": "uint256"
        },
        {
          "internalType": "address",
          "name": "voter",
          "type": "address"
        }
      ],
      "name": "getVoteWeight",
      "outputs": [
        {
          "internalType": "uint256",
          "name": "",
          "type": "uint256"
        }
      ],
      "stateMutability": "view",
      "type": "function"
    },
    {
      "inputs": [
        {
          "internalType": "uint256",
          "name": "proposalId",
          "type": "uint256"
        },
        {
          "internalType": "address",
          "name": "voter",
          "type": "address"
        }
      ],
      "name": "hasVoterBadge",
      "outputs": [
        {
          "internalType": "bool",
          "name": "",
          "type": "bool"
        }
      ],
      "stateMutability": "view",
      "type": "function"
    },
    {
      "inputs": [],
      "name": "owner",
      "outputs": [
        {
          "internalType": "address",
          "name": "",
          "type": "address"
        }
      ],
      "stateMutability": "view",
      "type": "function"
    },
    {
      "inputs": [],
      "name": "proposalCount",
      "outputs": [
        {
          "internalType": "uint256",
          "name": "",
          "type": "uint256"
        }
      ],
      "stateMutability": "view",
      "type": "function"
    },
    {
      "inputs": [
        {
          "internalType": "string",
          "name": "name",
          "type": "string"
        }
      ],
      "name": "removeProposalByName",
      "outputs": [],
      "stateMutability": "nonpayable",
      "type": "function"
    },
    {
      "inputs": [
        {
          "internalType": "address",
          "name": "_voteBadgeNFT",
          "type": "address"
        }
      ],
      "name": "setVoteBadgeNFT",
      "outputs": [],
      "stateMutability": "nonpayable",
      "type": "function"
    },
    {
      "inputs": [
        {
          "internalType": "uint256",
          "name": "proposalId",
          "type": "uint256"
        }
      ],
      "name": "vote",
      "outputs": [],
      "stateMutability": "nonpayable",
      "type": "function"
    },
    {
      "inputs": [],
      "name": "voteBadgeNFT",
      "outputs": [
        {
          "internalType": "contract VoteBadgeNFT",
          "name": "",
          "type": "address"
        }
      ],
      "stateMutability": "view",
      "type": "function"
    },
    {
      "inputs": [],
      "name": "votetoken",
      "outputs": [
        {
          "internalType": "contract IERC20",
          "name": "",
          "type": "address"
        }
      ],
      "stateMutability": "view",
      "type": "function"
    }
  ],
  "bytecode": "0x60806040523480156200001157600080fd5b50604051620028e5380380620028e5833981810160405281019062000037919062000129565b806000806101000a81548173ffffffffffffffffffffffffffffffffffffffff021916908373ffffffffffffffffffffffffffffffffffffffff16021790555033600460006101000a81548173ffffffffffffffffffffffffffffffffffffffff021916908373ffffffffffffffffffffffffffffffffffffffff160217905550506200015b565b600080fd5b600073ffffffffffffffffffffffffffffffffffffffff82169050919050565b6000620000f182620000c4565b9050919050565b6200010381620000e4565b81146200010f57600080fd5b50565b6000815190506200012381620000f8565b92915050565b600060208284031215620001425762000141620000bf565b5b6000620001528482850162000112565b91505092915050565b61277a806200016b6000396000f3fe608060405234801561001057600080fd5b50600436106100f55760003560e01c80637eba557311610097578063879315081161006657806387931508146102755780638da5cb5b14610293578063da35c664146102b1578063eb2fcf70146102cf576100f5565b80637eba5573146101c25780637ef4aa7b146101f257806381a60c0d14610210578063850cfac614610245576100f5565b8063233f625c116100d3578063233f625c1461015057806343090c711461016e57806349c2a1a61461018a5780634a907fa4146101a6576100f5565b80630121b93f146100fa5780630386a01614610116578063231835da14610132575b600080fd5b610114600480360381019061010f91906113f4565b6102ed565b005b610130600480360381019061012b91906113f4565b6108db565b005b61013a610a52565b6040516101479190611430565b60405180910390f35b610158610a59565b6040516101659190611430565b60405180910390f35b610188600480360381019061018391906114a9565b610a66565b005b6101a4600480360381019061019f919061161c565b610ba9565b005b6101c060048036038101906101bb91906116c5565b610e98565b005b6101dc60048036038101906101d79190611712565b611053565b6040516101e99190611430565b60405180910390f35b6101fa6110b6565b6040516102079190611430565b60405180910390f35b61022a600480360381019061022591906113f4565b6110c2565b60405161023c969594939291906117fb565b60405180910390f35b61025f600480360381019061025a9190611712565b6111db565b60405161026c9190611863565b60405180910390f35b61027d6112e2565b60405161028a91906118dd565b60405180910390f35b61029b611308565b6040516102a891906118f8565b60405180910390f35b6102b961132e565b6040516102c69190611430565b60405180910390f35b6102d7611334565b6040516102e49190611934565b60405180910390f35b60006003600083815260200190815260200160002090508060010154421061034a576040517f08c379a00000000000000000000000000000000000000000000000000000000081526004016103419061199b565b60405180910390fd5b8060030160009054906101000a900460ff161561039c576040517f08c379a000000000000000000000000000000000000000000000000000000000815260040161039390611a07565b60405180910390fd5b8060050160003373ffffffffffffffffffffffffffffffffffffffff1673ffffffffffffffffffffffffffffffffffffffff16815260200190815260200160002060009054906101000a900460ff161561042b576040517f08c379a000000000000000000000000000000000000000000000000000000000815260040161042290611a73565b60405180910390fd5b678ac7230489e8000060008054906101000a900473ffffffffffffffffffffffffffffffffffffffff1673ffffffffffffffffffffffffffffffffffffffff166370a08231336040518263ffffffff1660e01b815260040161048d91906118f8565b602060405180830381865afa1580156104aa573d6000803e3d6000fd5b505050506040513d601f19601f820116820180604052508101906104ce9190611aa8565b101561050f576040517f08c379a000000000000000000000000000000000000000000000000000000000815260040161050690611b21565b60405180910390fd5b60008054906101000a900473ffffffffffffffffffffffffffffffffffffffff1673ffffffffffffffffffffffffffffffffffffffff166323b872dd33600460009054906101000a900473ffffffffffffffffffffffffffffffffffffffff16678ac7230489e800006040518463ffffffff1660e01b815260040161059693929190611b41565b6020604051808303816000875af11580156105b5573d6000803e3d6000fd5b505050506040513d601f19601f820116820180604052508101906105d99190611ba4565b610618576040517f08c379a000000000000000000000000000000000000000000000000000000000815260040161060f90611c1d565b60405180910390fd5b600181600201600082825461062d9190611c6c565b9250508190555060018160050160003373ffffffffffffffffffffffffffffffffffffffff1673ffffffffffffffffffffffffffffffffffffffff16815260200190815260200160002060006101000a81548160ff02191690831515021790555060018160060160003373ffffffffffffffffffffffffffffffffffffffff1673ffffffffffffffffffffffffffffffffffffffff16815260200190815260200160002081905550600073ffffffffffffffffffffffffffffffffffffffff16600160009054906101000a900473ffffffffffffffffffffffffffffffffffffffff1673ffffffffffffffffffffffffffffffffffffffff1614610886576000610735611358565b9050600160009054906101000a900473ffffffffffffffffffffffffffffffffffffffff1673ffffffffffffffffffffffffffffffffffffffff166307a43090620493e03386856040518563ffffffff1660e01b815260040161079a93929190611ca0565b600060405180830381600088803b1580156107b457600080fd5b5087f1935050505080156107c6575060015b610883576107d2611ce4565b806308c379a00361084957506107e6611d06565b806107f1575061084b565b3373ffffffffffffffffffffffffffffffffffffffff16847f1abe610cf2bf87e57dcc1181fcf5ac0934e843d8344ab9eed6e86c799f62585e60016040516108399190611dd1565b60405180910390a35050506108d8565b505b3d8060008114610877576040519150601f19603f3d011682016040523d82523d6000602084013e61087c565b606091505b5050610884565b5b505b3373ffffffffffffffffffffffffffffffffffffffff16827f1abe610cf2bf87e57dcc1181fcf5ac0934e843d8344ab9eed6e86c799f62585e60016040516108ce9190611dd1565b60405180910390a3505b50565b60006003600083815260200190815260200160002090508060010154421015610939576040517f08c379a000000000000000000000000000000000000000000000000000000000815260040161093090611e38565b60405180910390fd5b8060030160009054906101000a900460ff161561098b576040517f08c379a000000000000000000000000000000000000000000000000000000000815260040161098290611ea4565b60405180910390fd5b60018160030160006101000a81548160ff02191690831515021790555060008160030160026101000a81548173ffffffffffffffffffffffffffffffffffffffff021916908373ffffffffffffffffffffffffffffffffffffffff160217905550817f09d62339fd3cdc6b52acbb2f292938e2553502b1bac286dbc6069a704e96a9ed8260030160029054906101000a900473ffffffffffffffffffffffffffffffffffffffff168360020154604051610a46929190611ec4565b60405180910390a25050565b6201518081565b68015af1d78b58c4000081565b600460009054906101000a900473ffffffffffffffffffffffffffffffffffffffff1673ffffffffffffffffffffffffffffffffffffffff163373ffffffffffffffffffffffffffffffffffffffff1614610af6576040517f08c379a0000000000000000000000000000000000000000000000000000000008152600401610aed90611f39565b60405180910390fd5b600073ffffffffffffffffffffffffffffffffffffffff168173ffffffffffffffffffffffffffffffffffffffff1603610b65576040517f08c379a0000000000000000000000000000000000000000000000000000000008152600401610b5c90611fa5565b60405180910390fd5b80600160006101000a81548173ffffffffffffffffffffffffffffffffffffffff021916908373ffffffffffffffffffffffffffffffffffffffff16021790555050565b68015af1d78b58c4000060008054906101000a900473ffffffffffffffffffffffffffffffffffffffff1673ffffffffffffffffffffffffffffffffffffffff166370a08231336040518263ffffffff1660e01b8152600401610c0c91906118f8565b602060405180830381865afa158015610c29573d6000803e3d6000fd5b505050506040513d601f19601f82011682018060405250810190610c4d9190611aa8565b1015610c8e576040517f08c379a0000000000000000000000000000000000000000000000000000000008152600401610c8590612011565b60405180910390fd5b60008054906101000a900473ffffffffffffffffffffffffffffffffffffffff1673ffffffffffffffffffffffffffffffffffffffff166323b872dd33600460009054906101000a900473ffffffffffffffffffffffffffffffffffffffff1668015af1d78b58c400006040518463ffffffff1660e01b8152600401610d1693929190611b41565b6020604051808303816000875af1158015610d35573d6000803e3d6000fd5b505050506040513d601f19601f82011682018060405250810190610d599190611ba4565b610d98576040517f08c379a0000000000000000000000000000000000000000000000000000000008152600401610d8f906120a3565b60405180910390fd5b60026000815480929190610dab906120c3565b91905055506000600360006002548152602001908152602001600020905081816000019081610dda919061230d565b506201518042610dea9190611c6c565b816001018190555060008160030160006101000a81548160ff021916908315150217905550338160040160006101000a81548173ffffffffffffffffffffffffffffffffffffffff021916908373ffffffffffffffffffffffffffffffffffffffff1602179055506002547f98504bc76d855fac343248bdddc062a45d467777dd16a83e57e505f8121562f383836001015433604051610e8c939291906123df565b60405180910390a25050565b600460009054906101000a900473ffffffffffffffffffffffffffffffffffffffff1673ffffffffffffffffffffffffffffffffffffffff163373ffffffffffffffffffffffffffffffffffffffff1614610f28576040517f08c379a0000000000000000000000000000000000000000000000000000000008152600401610f1f90612469565b60405180910390fd5b6000600190505b60025481116110135760006003600083815260200190815260200160002090508383604051610f5f9291906124b9565b604051809103902081600001604051610f78919061256a565b6040518091039020148015610f9c57508060030160019054906101000a900460ff16155b15610fff5760018160030160016101000a81548160ff021916908315150217905550817f4de32855f978f673d6193e70687d32bb7157af6e97b5051718018ea67d2327878585604051610ff09291906125ae565b60405180910390a2505061104f565b50808061100b906120c3565b915050610f2f565b506040517f08c379a00000000000000000000000000000000000000000000000000000000081526004016110469061261e565b60405180910390fd5b5050565b6000806003600085815260200190815260200160002090508060060160008473ffffffffffffffffffffffffffffffffffffffff1673ffffffffffffffffffffffffffffffffffffffff1681526020019081526020016000205491505092915050565b678ac7230489e8000081565b60606000806000806000806003600089815260200190815260200160002090508060000181600201548260030160009054906101000a900460ff1683600101548460030160019054906101000a900460ff168560040160009054906101000a900473ffffffffffffffffffffffffffffffffffffffff168580546111459061213a565b80601f01602080910402602001604051908101604052809291908181526020018280546111719061213a565b80156111be5780601f10611193576101008083540402835291602001916111be565b820191906000526020600020905b8154815290600101906020018083116111a157829003601f168201915b505050505095509650965096509650965096505091939550919395565b60008073ffffffffffffffffffffffffffffffffffffffff16600160009054906101000a900473ffffffffffffffffffffffffffffffffffffffff1673ffffffffffffffffffffffffffffffffffffffff160361123b57600090506112dc565b600160009054906101000a900473ffffffffffffffffffffffffffffffffffffffff1673ffffffffffffffffffffffffffffffffffffffff16634c6a70ce83856040518363ffffffff1660e01b8152600401611298929190611ec4565b602060405180830381865afa1580156112b5573d6000803e3d6000fd5b505050506040513d601f19601f820116820180604052508101906112d99190611ba4565b90505b92915050565b600160009054906101000a900473ffffffffffffffffffffffffffffffffffffffff1681565b600460009054906101000a900473ffffffffffffffffffffffffffffffffffffffff1681565b60025481565b60008054906101000a900473ffffffffffffffffffffffffffffffffffffffff1681565b6000806003424433604051602001611372939291906126a7565b6040516020818303038152906040528051906020012060001c6113959190612713565b90506001816113a49190611c6c565b91505090565b6000604051905090565b600080fd5b600080fd5b6000819050919050565b6113d1816113be565b81146113dc57600080fd5b50565b6000813590506113ee816113c8565b92915050565b60006020828403121561140a576114096113b4565b5b6000611418848285016113df565b91505092915050565b61142a816113be565b82525050565b60006020820190506114456000830184611421565b92915050565b600073ffffffffffffffffffffffffffffffffffffffff82169050919050565b60006114768261144b565b9050919050565b6114868161146b565b811461149157600080fd5b50565b6000813590506114a38161147d565b92915050565b6000602082840312156114bf576114be6113b4565b5b60006114cd84828501611494565b91505092915050565b600080fd5b600080fd5b6000601f19601f8301169050919050565b7f4e487b7100000000000000000000000000000000000000000000000000000000600052604160045260246000fd5b611529826114e0565b810181811067ffffffffffffffff82111715611548576115476114f1565b5b80604052505050565b600061155b6113aa565b90506115678282611520565b919050565b600067ffffffffffffffff821115611587576115866114f1565b5b611590826114e0565b9050602081019050919050565b82818337600083830152505050565b60006115bf6115ba8461156c565b611551565b9050828152602081018484840111156115db576115da6114db565b5b6115e684828561159d565b509392505050565b600082601f830112611603576116026114d6565b5b81356116138482602086016115ac565b91505092915050565b600060208284031215611632576116316113b4565b5b600082013567ffffffffffffffff8111156116505761164f6113b9565b5b61165c848285016115ee565b91505092915050565b600080fd5b600080fd5b60008083601f840112611685576116846114d6565b5b8235905067ffffffffffffffff8111156116a2576116a1611665565b5b6020830191508360018202830111156116be576116bd61166a565b5b9250929050565b600080602083850312156116dc576116db6113b4565b5b600083013567ffffffffffffffff8111156116fa576116f96113b9565b5b6117068582860161166f565b92509250509250929050565b60008060408385031215611729576117286113b4565b5b6000611737858286016113df565b925050602061174885828601611494565b9150509250929050565b600081519050919050565b600082825260208201905092915050565b60005b8381101561178c578082015181840152602081019050611771565b60008484015250505050565b60006117a382611752565b6117ad818561175d565b93506117bd81856020860161176e565b6117c6816114e0565b840191505092915050565b60008115159050919050565b6117e6816117d1565b82525050565b6117f58161146b565b82525050565b600060c08201905081810360008301526118158189611798565b90506118246020830188611421565b61183160408301876117dd565b61183e6060830186611421565b61184b60808301856117dd565b61185860a08301846117ec565b979650505050505050565b600060208201905061187860008301846117dd565b92915050565b6000819050919050565b60006118a361189e6118998461144b565b61187e565b61144b565b9050919050565b60006118b582611888565b9050919050565b60006118c7826118aa565b9050919050565b6118d7816118bc565b82525050565b60006020820190506118f260008301846118ce565b92915050565b600060208201905061190d60008301846117ec565b92915050565b600061191e826118aa565b9050919050565b61192e81611913565b82525050565b60006020820190506119496000830184611925565b92915050565b7f566f74696e6720706572696f64206973206f7665720000000000000000000000600082015250565b600061198560158361175d565b91506119908261194f565b602082019050919050565b600060208201905081810360008301526119b481611978565b9050919050565b7f50726f706f73616c20697320636c6f7365640000000000000000000000000000600082015250565b60006119f160128361175d565b91506119fc826119bb565b602082019050919050565b60006020820190508181036000830152611a20816119e4565b9050919050565b7f416c726561647920766f74656400000000000000000000000000000000000000600082015250565b6000611a5d600d8361175d565b9150611a6882611a27565b602082019050919050565b60006020820190508181036000830152611a8c81611a50565b9050919050565b600081519050611aa2816113c8565b92915050565b600060208284031215611abe57611abd6113b4565b5b6000611acc84828501611a93565b91505092915050565b7f4e6f7420656e6f75676820564f544520666f7220766f74652066656500000000600082015250565b6000611b0b601c8361175d565b9150611b1682611ad5565b602082019050919050565b60006020820190508181036000830152611b3a81611afe565b9050919050565b6000606082019050611b5660008301866117ec565b611b6360208301856117ec565b611b706040830184611421565b949350505050565b611b81816117d1565b8114611b8c57600080fd5b50565b600081519050611b9e81611b78565b92915050565b600060208284031215611bba57611bb96113b4565b5b6000611bc884828501611b8f565b91505092915050565b7f564f544520766f746520666565207472616e73666572206661696c6564000000600082015250565b6000611c07601d8361175d565b9150611c1282611bd1565b602082019050919050565b60006020820190508181036000830152611c3681611bfa565b9050919050565b7f4e487b7100000000000000000000000000000000000000000000000000000000600052601160045260246000fd5b6000611c77826113be565b9150611c82836113be565b9250828201905080821115611c9a57611c99611c3d565b5b92915050565b6000606082019050611cb560008301866117ec565b611cc26020830185611421565b611ccf6040830184611421565b949350505050565b60008160e01c9050919050565b600060033d1115611d035760046000803e611d00600051611cd7565b90505b90565b600060443d10611d9357611d186113aa565b60043d036004823e80513d602482011167ffffffffffffffff82111715611d40575050611d93565b808201805167ffffffffffffffff811115611d5e5750505050611d93565b80602083010160043d038501811115611d7b575050505050611d93565b611d8a82602001850186611520565b82955050505050505b90565b6000819050919050565b6000611dbb611db6611db184611d96565b61187e565b6113be565b9050919050565b611dcb81611da0565b82525050565b6000602082019050611de66000830184611dc2565b92915050565b7f566f74696e67207374696c6c206f6e676f696e67000000000000000000000000600082015250565b6000611e2260148361175d565b9150611e2d82611dec565b602082019050919050565b60006020820190508181036000830152611e5181611e15565b9050919050565b7f416c726561647920636c6f736564000000000000000000000000000000000000600082015250565b6000611e8e600e8361175d565b9150611e9982611e58565b602082019050919050565b60006020820190508181036000830152611ebd81611e81565b9050919050565b6000604082019050611ed960008301856117ec565b611ee66020830184611421565b9392505050565b7f4f6e6c79206f776e65722063616e20736574204e465420636f6e747261637400600082015250565b6000611f23601f8361175d565b9150611f2e82611eed565b602082019050919050565b60006020820190508181036000830152611f5281611f16565b9050919050565b7f496e76616c696420616464726573730000000000000000000000000000000000600082015250565b6000611f8f600f8361175d565b9150611f9a82611f59565b602082019050919050565b60006020820190508181036000830152611fbe81611f82565b9050919050565b7f4e6f7420656e6f75676820564f544520666f722070726f706f73616c20666565600082015250565b6000611ffb60208361175d565b915061200682611fc5565b602082019050919050565b6000602082019050818103600083015261202a81611fee565b9050919050565b7f564f54452070726f706f73616c20666565207472616e73666572206661696c6560008201527f6400000000000000000000000000000000000000000000000000000000000000602082015250565b600061208d60218361175d565b915061209882612031565b604082019050919050565b600060208201905081810360008301526120bc81612080565b9050919050565b60006120ce826113be565b91507fffffffffffffffffffffffffffffffffffffffffffffffffffffffffffffffff8203612100576120ff611c3d565b5b600182019050919050565b7f4e487b7100000000000000000000000000000000000000000000000000000000600052602260045260246000fd5b6000600282049050600182168061215257607f821691505b6020821081036121655761216461210b565b5b50919050565b60008190508160005260206000209050919050565b60006020601f8301049050919050565b600082821b905092915050565b6000600883026121cd7fffffffffffffffffffffffffffffffffffffffffffffffffffffffffffffffff82612190565b6121d78683612190565b95508019841693508086168417925050509392505050565b600061220a612205612200846113be565b61187e565b6113be565b9050919050565b6000819050919050565b612224836121ef565b61223861223082612211565b84845461219d565b825550505050565b600090565b61224d612240565b61225881848461221b565b505050565b5b8181101561227c57612271600082612245565b60018101905061225e565b5050565b601f8211156122c1576122928161216b565b61229b84612180565b810160208510156122aa578190505b6122be6122b685612180565b83018261225d565b50505b505050565b600082821c905092915050565b60006122e4600019846008026122c6565b1980831691505092915050565b60006122fd83836122d3565b9150826002028217905092915050565b61231682611752565b67ffffffffffffffff81111561232f5761232e6114f1565b5b612339825461213a565b612344828285612280565b600060209050601f8311600181146123775760008415612365578287015190505b61236f85826122f1565b8655506123d7565b601f1984166123858661216b565b60005b828110156123ad57848901518255600182019150602085019450602081019050612388565b868310156123ca57848901516123c6601f8916826122d3565b8355505b6001600288020188555050505b505050505050565b600060608201905081810360008301526123f98186611798565b90506124086020830185611421565b61241560408301846117ec565b949350505050565b7f4f6e6c79206f776e65722063616e2072656d6f76652070726f706f73616c7300600082015250565b6000612453601f8361175d565b915061245e8261241d565b602082019050919050565b6000602082019050818103600083015261248281612446565b9050919050565b600081905092915050565b60006124a08385612489565b93506124ad83858461159d565b82840190509392505050565b60006124c6828486612494565b91508190509392505050565b60008190508160005260206000209050919050565b600081546124f48161213a565b6124fe8186612489565b94506001821660008114612519576001811461252e57612561565b60ff1983168652811515820286019350612561565b612537856124d2565b60005b838110156125595781548189015260018201915060208101905061253a565b838801955050505b50505092915050565b600061257682846124e7565b915081905092915050565b600061258d838561175d565b935061259a83858461159d565b6125a3836114e0565b840190509392505050565b600060208201905081810360008301526125c9818486612581565b90509392505050565b7f50726f706f73616c206e6f7420666f756e640000000000000000000000000000600082015250565b600061260860128361175d565b9150612613826125d2565b602082019050919050565b60006020820190508181036000830152612637816125fb565b9050919050565b6000819050919050565b612659612654826113be565b61263e565b82525050565b60008160601b9050919050565b60006126778261265f565b9050919050565b60006126898261266c565b9050919050565b6126a161269c8261146b565b61267e565b82525050565b60006126b38286612648565b6020820191506126c38285612648565b6020820191506126d38284612690565b601482019150819050949350505050565b7f4e487b7100000000000000000000000000000000000000000000000000000000600052601260045260246000fd5b600061271e826113be565b9150612729836113be565b925082612739576127386126e4565b5b82820690509291505056fea26469706673582212204a420776f8185345a34d2208a6aa859ffdf98e3b0b712546bf7f9067b7aec42064736f6c63430008140033",
  "linkReferences": {},
  "deployedLinkReferences": {}
}